:020000040800F2
:10000000A807002041130008790300087B030008BB
:100010007F03000883030008870300080000000036
:100020000000000000000000000000008B0300083A
:100030008D030008000000008F03000891030008F2
:100040005B1300085B1300085B1300085B130008D8
:100050005B1300085B13000889080008B308000858
:10006000DD0800085B1300085B1300085B13000841
:100070005B1300085B1300085B1300085B130008A8
:100080005B1300085B1300085B1300085B13000898
:100090004F0D00085B1300085B1300085B1300089A
:1000A0005B130008AD0A00085B130008F90A00089A
:1000B0005B130008650900085B1300085B13000868
:1000C0005B1300085B1300085B1300085B13000858
:1000D0005B1300086F120008AB1200085B130008E6
:1000E0005B1300085B1300085B1300085B13000838
:1000F0005B1300085B1300085B1300085B13000828
:100100005B1300085B1300085B1300085B13000817
:100110005B1300085B1300085B1300085B13000807
:100120005B1300085B1300085B1300085B130008F7
:1001300000F002F800F04DF80AA090E8000C8244AC
:100140008344AAF10107DA4501D100F042F8AFF289
:10015000090EBAE80F0013F0010F18BFFB1A43F0A5
:10016000010318475C4D00007C4D0000103A24BF8D
:1001700078C878C1FAD8520724BF30C830C144BF0C
:1001800004680C607047000000230024002500264E
:10019000103A28BF78C1FBD8520728BF30C148BFEA
:1001A0000B607047662904F02B86642903F07E8378
:1001B000782903F0B783002070471FB503F0B8FE1D
:1001C00004000020002104F019FCE0601FBD10B500
:1001D00010BD03F0C9FF1146FFF7EFFF00F04DF827
:1001E00003F0E7FF03B4FFF7F2FF03BC00F08AFF60
:1001F00010B5002400BF0DE0464801780078401C8F
:10020000444A1070081944490855002043490855CC
:10021000601CC4B2082CEFDB08213F4800F0BCFD95
:100220003F49087010BD70B5002500243B4800F020
:10023000E9FD054655B100BF06E03848015D39A02B
:1002400003F028FB601CC4B2AC42F6DB70BD10B5F5
:1002500004462146374801F0BFFD00BF4021354824
:1002600001F028FE0028F9D010BD3349088000BFF6
:10027000314909880029FBD1704708B500240121C4
:1002800040F2FD1001F007FC01212C4801F017FAA3
:1002900000F0CEFE4FF4A06001F072F84FF4612040
:1002A00000F099FF26A003F0F5FA00F063F941F69B
:1002B0001F41092000F02AFB002004230822072107
:1002C000009000F069FC23A003F0E4FA0A2000F09B
:1002D000ECFE1EE02248008860B94FF448702049C7
:1002E000088020480068C0431F49C1F8A001052CC0
:1002F00000DB00241D48008808B9012000E0002030
:100300001B490978084020B100201A490880184983
:100310000870DFE715000020000000200800002022
:100320001600002063616E5F646174613A25640D9C
:100330000A000000003801403E00002000023000AA
:1003400075617274315F696E69745F39323136304C
:10035000300D0A0063616E203530306B0D0A0000ED
:100360003C000020A0812142008021426600002044
:100370006800002064000020704700BFFEE700BF57
:10038000FEE700BFFEE700BFFEE77047704770471B
:10039000704700000CB50020019000906C48006888
:1003A00040F480306A49086000BF6948006800F482
:1003B000003000900198401C0190009820B94FF641
:1003C000FF7101988842F0D16148006800F4003064
:1003D00010B10120009001E0002000900098012859
:1003E00043D15C48006840F010005A490860084654
:1003F000006820F0030008600846006840F0020032
:100400000860534840685249486008464068486060
:100410000846406840F4806048600846406820F420
:100420007C1048600846406840F4E8104860084680
:10043000006840F08070086000BF4548006800F028
:1004400000700028F9D04248406820F0030040497D
:1004500048600846406840F00200486000BF3C48E1
:10046000406800F00C000828F9D10CBD10B5FFF76A
:1004700091FF10BD10B53648006840F001003449C6
:1004800008600846406834490840314948600846D9
:100490000068324908402E4908600846006820F488
:1004A000802008600846406820F4FE0048604FF451
:1004B0001F008860FFF7DAFF4FF0006028490860EE
:1004C00010BD10B5002100200022214B5B6803F015
:1004D0000C0121B1042906D0082928D107E0214BBD
:1004E000214C236027E01F4B1F4C236023E0184B57
:1004F0005B6803F47010164B5B6803F480320223D0
:1005000003EB904022B9194B4343174C23600DE095
:100510000F4B5B6803F4003323B1144B4343124C7D
:10052000236003E00F4B43430F4C236003E00D4B6C
:100530000D4C236000BF00BF054B5B68C3F3031382
:100540000B4CE15C084B1B68CB40074C236010BD93
:1005500000100240002002400000FFF8FFFFF6FEFE
:1005600008ED00E000127A001C00002000093D00A8
:100570002000002008B50320ADF8000048208DF8C9
:10058000030003208DF8020069460D4800F0C6FF05
:100590004FF48070ADF8000010208DF803000320A8
:1005A0008DF802006946074800F0B8FF04210448AE
:1005B00001F061F83821024801F05FF808BD000041
:1005C00000080140000C014008B50121142001F091
:1005D00062FA40F2FF70ADF8000048208DF8030089
:1005E0006946834800F09AFF4FF40060ADF80000C0
:1005F00028208DF8030069467D4800F08FFF08BD74
:1006000010B5044614B101207A4908707948007881
:10061000002870D00121764801F013F8D8B30221E8
:10062000734801F00EF8B0B30421714801F009F8E5
:1006300088B308216E4801F004F860B310216C48BB
:1006400000F0FFFF38B32021694800F0FAFF10B333
:100650004021674800F0F5FFE8B18021644800F0D0
:10066000F0FFC0B14FF48071614800F0EAFF90B133
:100670004FF400715E4800F0E4FF60B14FF4806118
:100680005B4800F0DEFF30B14FF40061584800F0E5
:10069000D8FF01285FD10A2000F007FD002055494E
:1006A00008700121524800F0CCFF08B9012010BDAC
:1006B00002214F4800F0C5FF08B90220F7E70421E6
:1006C0004B4800F0BEFF08B90320F0E70821484876
:1006D00000F0B7FF08B90420E9E71021444800F012
:1006E000B0FF08B90520E2E72021414800F0A9FF4A
:1006F00010B90620DBE72EE040213D4800F0A1FFC5
:1007000008B90720D3E78021394800F09AFF08B9DB
:100710000820CCE74FF48071354800F092FF08B90B
:100720000920C4E74FF40071314800F08AFF08B98E
:100730000A20BCE74FF480612D4800F082FF08B921
:100740000B20B4E74FF40061294800F07AFF01283C
:100750004BD10C20ABE70121254800F072FF0128A6
:1007600043D10221224800F06CFF01283DD1042131
:100770001F4800F066FF012837D108211C4800F00F
:1007800060FF012831D11021194800F05AFF0128DB
:100790002BD12021164800F054FF012825D14021FB
:1007A000134800F04EFF01281FD18021104800F0AF
:1007B00048FF012819D101020D4800F042FF01282D
:1007C00013D141020A4800F03CFF01280DD18102FB
:1007D000074800F036FF012807D1C102044800F0A5
:1007E00030FF10B901200349087000205FE70000C6
:1007F00000100140300000200EB50121084601F034
:100800004AF9FFF7E1FE0021084600F09DFF0120B4
:10081000019000208DF808000C208DF809000120BF
:100820008DF80A0001A802F0BBFA0121002000F0B7
:100830008BFF0220019000208DF808000C208DF81D
:10084000090001208DF80A0001A802F0A9FA06208B
:100850008DF8000002208DF801008DF802000120C3
:100860008DF80300684600F090FD07208DF8000029
:1008700002208DF8010001208DF802008DF80300A0
:10088000684600F082FD0EBD10B532201749088081
:100890000121174800F0D5FE38B91648007820B974
:1008A00001201449087014490870012002F0EFFA81
:1008B00010BD10B532201149088002210C4800F00B
:1008C000C0FE38B90E48007820B901200C490870E4
:1008D0000C490870022002F0DAFA10BD10B50320AE
:1008E00009490870042002F0D2FA10BD3600002039
:1008F00000080140320000203400002038000020B1
:1009000033000020350000203A0000207FB5054666
:100910000C460121022001F0CBF8ADF80850ADF8EB
:1009200004400020ADF80A00ADF8060001A92948EE
:1009300001F0EEFB01221146264801F060FF1D2068
:100940008DF8000003208DF801008DF802000120D1
:100950008DF80300684600F018FD01211D4801F0E4
:1009600033FF7FBD10B501211A4802F0F6F980B3BC
:100970000121184802F002FA17480088002804DD17
:1009800015480088401E1449088014480088002833
:1009900004DD12480088401E104908801048008875
:1009A000002804DD0E480088401E0D4908800D48CF
:1009B0000088002804DD0B480088401E0949088093
:1009C00009480088002804DD07480088401E0649C1
:1009D000088010BD000400403C000020660000209C
:1009E0003E000020360000203800002030B589B0DD
:1009F00005460C460121C80201F04DF801210420F2
:100A000001F049F84FF48070ADF8200018208DF8FF
:100A1000230003208DF8220008A95A4800F07EFD2B
:100A200001208DF81C00ADF81850ADF814400020DE
:100A3000ADF81A00ADF8160005A9534801F068FB9F
:100A40007020ADF804000120ADF806004FF47A7074
:100A5000ADF80A000220ADF80C0001A94A4801F0E7
:100A600094FB0121484801F0BBFE0821464801F0F3
:100A7000DBFF0121444801F0A7FF01221146424853
:100A800001F0BDFE19208DF8000000208DF8010056
:100A90008DF8020001208DF80300684600F075FC17
:100AA0000121394801F090FE09B030BD10B5012197
:100AB000354802F052F9F0B10121334802F05EF9F5
:100AC00030480C30006880F400602E490C3108601A
:100AD0002E48007838B1C9142A4800F0CCFD002017
:100AE0002A49087007E04FF40061264800F0C5FD70
:100AF00001202649087010BD10B50221224802F0DD
:100B00002CF901283CD102211F4802F037F91D4879
:100B10000C30006880F400601A490C310860002134
:100B2000194802F0E5F81A4800780A2821DA17482F
:100B3000007858B11748164A127830F81210124847
:100B400002F0DAF800201149087012E01148104A4A
:100B5000127830F81200C0F5FA6081B20A4802F04B
:100B6000CBF801200949087009480078401C084961
:100B70000870074800780A2802D10020044908704C
:100B800010BD000000080140002C01405A00002068
:100B900041000020420000202DE9F0418AB00446C7
:100BA0000D4616461F46DDF840800121052000F065
:100BB00072FF0121480600F07BFF4FF48050ADF832
:100BC000240003208DF8260018208DF8270009A99D
:100BD000F54800F0A3FC4FF40060ADF824000320BA
:100BE0008DF8260048208DF8270009A9EE4800F06E
:100BF00095FCEE4802F054F906A802F075FA0020C0
:100C00008DF81E008DF81F008DF8200001208DF852
:100C1000210000208DF822008DF823008DF81A8025
:100C20008DF81B408DF81C608DF81D50ADF81870C4
:100C300006A9DE4802F04DF90D208DF812000020C3
:100C40008DF813008DF814004FF62050ADF8080011
:100C50004FF47D40ADF80A000020ADF80C00ADF86F
:100C60000E00ADF8100001208DF8150002A802F06A
:100C7000BAF90C208DF8120000208DF813008DF8C1
:100C800014004FF62050ADF808004FF47D40ADF849
:100C90000A000020ADF80C00ADF80E00ADF8100011
:100CA00001208DF8150002A802F09DF90B208DF8A7
:100CB000120000208DF813008DF814004FF620501C
:100CC000ADF808004FF47D40ADF80A000020ADF803
:100CD0000C00ADF80E00ADF8100001208DF81500E5
:100CE00002A802F080F900208DF8120001208DF892
:100CF000130000208DF814002020ADF808004020DB
:100D0000ADF80A000020ADF80C00ADF80E00ADF80B
:100D1000100001208DF8150002A802F064F90122EC
:100D20000221A24802F05EFC14208DF8040001208C
:100D30008DF8050000208DF8060001208DF80700D1
:100D400001A800F022FB00200AB0BDE8F08130B518
:100D500085B0002500246A460021944802F027FB54
:100D60009DF8080008B9009D00E0019D294690A06B
:100D700002F090FD002406E00DF10B00015D8FA054
:100D800002F088FD641C9DF80A00A042F4DC8DA0EE
:100D900002F080FD05B030BDF0B585B007460D46C8
:100DA000002440F2DF7000908748019000208DF809
:100DB00008008DF809008DF80A5000BF05E0395D84
:100DC0000DF10B000155601C84B2AC42F7DB6946A3
:100DD000764802F0F7F90646002401E0601C84B270
:100DE0003146724802F086FA18B940F6FF70844224
:100DF000F4DB40F6FF70844202DB012005B0F0BD59
:100E00000020FBE730B585B005460021674802F0B9
:100E100051FB10B9002005B030BD6A46002163487F
:100E200002F0C5FA002404E00DF10B00005D285526
:100E3000641C082CF8D39DF80A00ECE72DE9F0417A
:100E400088B080460D461646002460A103C9CDE94E
:100E500001018DF806800395049500208DF814009B
:100E60008DF815008DF8166000BF05E001A8015D42
:100E700013300155601C84B2B442F7DB03A94B4820
:100E800002F0A0F90746002401E0601C84B2394654
:100E9000464802F02FFA18B940F6FF708442F4DB9E
:100EA00040F6FF70844203DB012008B0BDE8F0810A
:100EB0000020FAE72DE9F04105460C464FF0000806
:100EC000B5F5FD6F6DD1A0780C2816D12179E278A7
:100ED00041EA022003F09CFE80464FF081414046EB
:100EE00003F0D4FD8046404603F0A4FD064632469A
:100EF0000B4638A002F0CEFC53E0A0780D2804D1B8
:100F0000E17838A002F0C6FC4BE0A078112816D199
:100F1000E07803F095FE80463649404603F0A4FE93
:100F20000646354903F0B2FD8046404603F082FD97
:100F3000064632460B4631A002F0ACFC31E0A07808
:100F4000042816D1E07803F07BFE8046294940460C
:100F500003F08AFE0646284903F098FD8046404685
:100F600003F068FD064632460B4627A002F092FCCD
:100F700017E0A078422814D12179E27841EA0220D2
:100F800003F046FE80462549404603F07FFD80463B
:100F9000404603F04FFD064632460B4620A002F0C5
:100FA00079FCBDE8F08100000008014000640040C9
:100FB0002D3E203078256C782020000020257820D8
:100FC000000000000D0A0000F133DB1802010000F0
:100FD00000000000B7A2B5E7BBFAD7AACBD93A25E3
:100FE000660D0A00B3B5CBD93A2564B9ABC0EF0D95
:100FF0000A0000000000C84200007F43D3CDC3C5F3
:101000003A256625250D0A00B7A2B5E7BBFAB8BA9E
:10101000D4D83A256625250D0A00000000007A4440
:10102000B5E7B3D8B5E7D1B93A2566560D0A000041
:1010300010B56FF0040000F0F2F92E4800682E4958
:10104000B0FBF1F02D4908700846007800EB400134
:10105000C1EBC0104FF6FF7101EAC00028490880BB
:1010600010BD0146254A12784A434FF0E0235A61E9
:1010700000229A611A46126942F001021A6100BF09
:101080004FF0E022106900F001021AB100F4803242
:10109000002AF5D04FF0E022126922F001024FF051
:1010A000E0231A6100229A6170470146144A1288AF
:1010B0004A434FF0E0235A6100229A611A461269AE
:1010C00042F001021A6100BF4FF0E022106900F007
:1010D00001021AB100F48032002AF5D04FF0E0226C
:1010E000126922F001024FF0E0231A6100229A6196
:1010F000704700001C00002000127A005C000020F5
:101100005E000020014600BF704700BF854A12887C
:1011100002F04002002AF9D0C2B2824B1B1D1A8095
:10112000704700BF7F49098801F040010029F9D0CC
:10113000C1B27C4A121D1180704710B586B00446BA
:10114000012144F2040000F0A6FC0121480400F053
:10115000AFFC0420ADF8140003208DF81600182011
:101160008DF8170005A9704800F0D8F90820ADF8EF
:10117000140004208DF8170005A96B4800F0CEF983
:1011800026208DF8000003208DF801008DF8020064
:1011900001208DF80300684600F0F7F80194002064
:1011A000ADF80800ADF80A00ADF80C00ADF810007D
:1011B0000C20ADF80E0001A95C4800F014FD0122DE
:1011C00040F22551594800F0A6FD0121574800F092
:1011D00096FD06B010BD10B586B00446012144F25C
:1011E000040000F058FC4FF40070ADF81400032028
:1011F0008DF8160018208DF8170005A94A4800F050
:101200008DF94FF48060ADF8140004208DF81700BC
:1012100005A9454800F082F925208DF8000000203E
:101220008DF801008DF8020001208DF8030068465A
:1012300000F0ABF801940020ADF80800ADF80A000A
:10124000ADF80C00ADF810000C20ADF80E0001A9AF
:10125000344800F0C8FC012240F22551314800F02A
:101260005AFD01212F4800F04AFD06B010BD10B50F
:1012700040F225512B4800F033FEA8B12948001D4B
:101280000088C4B22A480088C82807DA284801889C
:101290000088401C264A10802648445401202649D4
:1012A000087002202549088010BD10B540F2255174
:1012B0001E4800F015FE10B31C4800F091FDC4B2AA
:1012C0001B48008800F40040C8B91948008800F4A1
:1012D000804060B10A2C03D000201549088020E02E
:1012E0001348008840F400401149088019E00D2C93
:1012F00006D10F48008840F480400D49088010E076
:101300000B480088C0F30D000A490C5408480088B7
:10131000401C0749088008460088C72801DD0020D6
:10132000088010BD00380140000801400044004022
:10133000640000208000002068000020660000207B
:101340000948804709480047FEE7FEE7FEE7FEE759
:10135000FEE7FEE7FEE7FEE7FEE7FEE70448054995
:10136000054A064B7047000075040008310100086B
:10137000A8010020A8070020A8030020A80300203F
:1013800031490143314A1160704770B50021002393
:101390000F22C47804B32D4C246804F4E064C4F52F
:1013A000E064210AC1F10403CA40447804FA03F15D
:1013B0008478144021430901254C0678A15504780E
:1013C00004F01F050124AC4005786D11AD0005F156
:1013D000E025C5F8004109E0047804F01F05012468
:1013E000AC401C4D0678761145F8264070BD1A4A6F
:1013F0000A400243154B1B1F1A60704739B1134A4C
:10140000121D12680243114B1B1D1A6006E00F4AA1
:10141000121D126882430D4B1B1D1A607047042871
:1014200008D14FF0E021096941F004014FF0E022BA
:10143000116107E04FF0E021096921F004014FF04C
:10144000E0221161704700000000FA050CED00E099
:1014500000E400E080E100E080FFFF1F10B50446DB
:10146000CC48844208D10121042000F02EFB002149
:10147000042000F02AFB46E0C748844208D101213D
:10148000082000F022FB0021082000F01EFB3AE0BB
:10149000C248844208D10121102000F016FB00212F
:1014A000102000F012FB2EE0BD48844208D101213B
:1014B000202000F00AFB0021202000F006FB22E0A3
:1014C000B848844208D10121402000F0FEFA0021F2
:1014D000402000F0FAFA16E0B348844208D1012116
:1014E000802000F0F2FA0021802000F0EEFA0AE0FD
:1014F000AE48844207D10121801500F0E6FA0021B0
:10150000A01500F0E2FA10BD10B50121084600F068
:10151000DCFA0021012000F0D8FA10BD2DE9F041DD
:10152000024600250026002000230024002791F811
:1015300003C00CF00F0591F803C00CF0100CBCF1C7
:10154000000F03D091F802C04CEA050591F800C0E5
:10155000BCF1000F31D0146800202BE04FF0010CDB
:101560000CFA00F3B1F800C00CEA03069E4220D149
:1015700083004FF00F0C0CFA03F7BC4305FA03FC91
:101580004CEA040491F803C0BCF1280F06D14FF0D7
:10159000010C0CFA00FCC2F814C00AE091F803C078
:1015A000BCF1480F05D14FF0010C0CFA00FCC2F859
:1015B00010C0401C0828D1D31460B1F800C0BCF1A1
:1015C000FF0F34DD546800202EE000F1080C4FF0CE
:1015D000010808FA0CF3B1F800C00CEA03069E42B9
:1015E00021D183004FF00F0C0CFA03F7BC4305FA2E
:1015F00003FC4CEA040491F803C0BCF1280F05D1A8
:1016000000F1080C08FA0CF8C2F8148091F803C035
:10161000BCF1480F07D100F1080C4FF0010808FA9F
:101620000CF8C2F81080401C0828CED35460BDE8E6
:10163000F0814FF6FF710180022181700421C17099
:1016400070470246002093680B400BB1012000E078
:10165000002070470146886880B27047024600202B
:10166000D3680B400BB1012000E000207047014619
:10167000C86880B2704701617047416170470AB124
:10168000016100E041617047C16070474FF48032F2
:101690000A43826181618261826982697047024680
:1016A0000020434B18684FF68073184040EA021040
:1016B00008433F4B186070473E49C8617047F0B51A
:1016C0000A46002300240021002500F00046B6F160
:1016D000004F02D1364EF16901E0354E7168C0F31A
:1016E000034583B200F44016B6F5401F08D121F03F
:1016F00070612F4E766826F070662D4F7E6012E086
:1017000000F48016B6F5801F06D1032606FA05F40C
:10171000A14341F0706106E0460D360103FA06F67A
:10172000B14341F0706122B1460D360103FA06F66D
:10173000314300F00046B6F1004F02D11C4EF1617A
:1017400001E01B4E7160F0BD30B500228B071C0F0D
:101750000F2303FA04F2164B08338C1053F824308D
:101760009343134C08348D1044F8253023468C10D5
:1017700053F824308C07240F00FA04F423430C4C54
:1017800008348D1044F8253030BD0A49DC3108603A
:101790007047000000080140000C014000100140AB
:1017A0000014014000180140001C014000200140CD
:1017B0000000014000002042E048006840F00100C5
:1017C000DE49086008464068DD490840DB4948605A
:1017D00008460068DB490840D849086008460068A8
:1017E00020F4802008600846406820F4FE0048602D
:1017F0004FF41F0088607047D049096821F4803198
:10180000CE4A11601146096821F480211160B0F5BB
:10181000803F03D0B0F5802F0ED106E0C74909689C
:1018200041F48031C54A116007E0C449096841F4B8
:10183000A021C24A116000E000BF00BF704710B590
:1018400001460022002300204A11012A02D1BB4C8C
:10185000236806E0022A02D1B84C236A01E0B74CA3
:10186000636A01F01F02012494401C400CB1012066
:1018700000E0002010BD38B50020009000240025B5
:1018800000BF3120FFF7DBFF05460098401C0090A9
:101890004FF6FF710098884201D0002DF1D0312021
:1018A000FFF7CDFF08B1012400E00024204638BD39
:1018B00001460020A14A106820F0F80040EAC1006B
:1018C00010607047A04908607047024600209B4B9B
:1018D000586820F47C1042EA01031843974B586083
:1018E000704799490866704701460020934A50683E
:1018F00020F003000843506070479048406800F0B3
:101900000C007047014600208C4A506820F0F0001F
:1019100008435060704701460020884A506820F410
:10192000E06008435060704701460020834A5068D9
:1019300020F4605040EAC1005060704729B17F4AEE
:10194000527A02437D4B5A7204E07C4A527A8243B7
:101950007A4B5A7270477C49D8310860704701460B
:101960000020764A506820F4404008435060704799
:101970000021724A20321170704A82F8201001282A
:1019800002D004280AD104E001216C4A20321170EF
:1019900005E00521694A2032117000E000BF00BF58
:1019A00070476A49086070476449096A0143634A9D
:1019B00011627047654944390860704730B50021AD
:1019C0000022002400235D4D6D6805F00C0121B15B
:1019D000042905D0082923D105E05D4D056022E0EA
:1019E0005B4D05601FE0554D6D6805F47012534D59
:1019F0006D6805F48034022505EB92421CB9554D03
:101A0000554305600BE04D4D6D6805F400351DB183
:101A1000504D5543056002E04D4D5543056002E0D1
:101A20004B4D056000BF00BF444D6D6805F0F001EF
:101A30000909494D6B5C0568DD4045603F4D6D68A7
:101A400005F4E061090A444D6B5C4568DD40856042
:101A50003A4D6D6805F46051C90A3F4D6B5C4568AD
:101A6000DD40C560354D6D6805F44041890B3B4D47
:101A70006B5CC568B5FBF3F5056130BD29B12F4A34
:101A8000526902432D4B5A6104E02C4A5269824349
:101A90002A4B5A61704729B1284A92690243274B61
:101AA0009A6104E0254A92698243244B9A61704707
:101AB00029B1224AD2690243204BDA6104E01F4A6D
:101AC000D26982431D4BDA61704729B11B4AD26843
:101AD00002431A4BDA6004E0184AD2688243174B7B
:101AE000DA60704729B1154A12690243134B1A6133
:101AF00004E0124A12698243104B1A61704713497D
:101B00004039086070471049C86470470B49C87174
:101B100070470A48406A40F0807008494862704740
:101B200001460020054A92680A400AB1012000E0FF
:101B30000020704701498872704700000010024081
:101B40000000FFF8FFFFF6FE000042428004424220
:101B500000127A0000093D00690000207900002091
:101B600010B50446FB48844209D101218803FFF7E0
:101B7000ACFF00214FF48040FFF7A7FF32E0F648AA
:101B8000844209D101214804FFF7ACFF00214FF442
:101B90000030FFF7A7FF25E0F048844209D101217A
:101BA0008804FFF79FFF00214FF48020FFF79AFF82
:101BB00018E0EB48844209D10121C804FFF792FFE5
:101BC00000214FF40020FFF78DFF0BE0E548844231
:101BD00008D101210805FFF785FF00214FF480108F
:101BE000FFF780FF10BD2DE9F04786B005460E4691
:101BF0000024A24600BFA1460027B08900B100BF63
:101C00002F462C8A4CF6FF700440F08804432C8247
:101C1000AC894EF6F3100440B088318908437189CD
:101C200008430443AC81AC8A4FF6FF400440B089BE
:101C30000443AC8201A8FFF7C1FEC648874202D127
:101C4000DDF810A001E0DDF80CA0A88900F4004048
:101C500040B10AEBCA0000EB0A1031684900B0FB42
:101C6000F1F807E00AEBCA0000EB0A1031688900BE
:101C7000B0FBF1F86420B8FBF0F004012009642106
:101C800001FB1089A88900F4004040B1322000EB2C
:101C9000C900B0FBF1F000F00700044308E0322077
:101CA00000EB09106421B0FBF1F000F00F000443D9
:101CB0002C8106B0BDE8F0874FF416510160002179
:101CC0008180C18001810C21418100218181704787
:101CD00010B502460020108A4FF2FF0318400B880F
:101CE0004C8823438C882343CC8823431843108299
:101CF00010BD0021018041808180C180704721B1E9
:101D0000828942F40052828104E082894DF6FF7399
:101D10001A4082817047F0B5034600240026002552
:101D2000002040F66A17B94200D100BF1846C1F33F
:101D3000421401F01F06012707FA06F5012C01D114
:101D40000C3004E0022C01D1103000E014301AB144
:101D500007682F43076002E00768AF430760F0BDE4
:101D60001AB1838A0B43838202E0838A8B43838286
:101D70007047028A4FF6F0731A400282028A0A43C1
:101D80000282704782894FF2FF731A4082818289F2
:101D90000A438281704721B1828942F00202828126
:101DA00004E082894FF6FD731A4082817047028AEF
:101DB0004FF6DF731A400282028A0A43028270479A
:101DC00021B1028A42F48042028204E0028A4BF688
:101DD000FF731A4002827047C1F308028280704785
:101DE00001468888C0F308007047818941F00101ED
:101DF00081817047028BD2B20283028B42EA0122B8
:101E000002837047028B02F47F420283028B0A43F3
:101E10000283704721B1828A42F02002828204E06C
:101E2000828A4FF6DF731A408282704721B1828A1C
:101E300042F01002828204E0828A4FF6EF731A4069
:101E40008282704721B1828A42F00802828204E0D5
:101E5000828A4FF6F7731A408282704721B18289D5
:101E600042F40042828103E08289C2F30E02828141
:101E7000704721B1828A42F40062828204E0828A41
:101E80004FF2FF731A4082827047828A4FF6FB73CB
:101E90001A408282828A0A438282704721B1828AF2
:101EA00042F00202828204E0828A4FF6FD731A40F9
:101EB0008282704702460020B1F5007F00D100BF4A
:101EC00013880B400BB1012000E00020704701F4A3
:101ED0000072B2F5007F00D100BFCA430280704794
:101EE00070B50246002400230025002040F66A1643
:101EF000B14200D100BFC1F3421501F01F0301261A
:101F000006FA03F3012D02D19689334006E0022D33
:101F100002D1168A334001E0968A33400C12012622
:101F200006FA04F41688344013B10CB1012000E025
:101F3000002070BD10B50022002340F66A14A142B3
:101F400000D100BF0A1201249440A3B2DC430480F4
:101F500010BD00000038014000440040004800402F
:101F6000004C00400050004010B50446FE4884423A
:101F700008D10121C014FFF7A8FD0021E014FFF7EC
:101F8000A4FDC4E0B4F1804F08D101210846FFF759
:101F9000A9FD00210120FFF7A5FDB8E0F348844228
:101FA00008D101210220FFF79DFD00210220FFF74B
:101FB00099FDACE0EE48844208D101210420FFF7EE
:101FC00091FD00210420FFF78DFDA0E0E948844247
:101FD00008D101210820FFF785FD00210820FFF727
:101FE00081FD94E0E448844208D101211020FFF7EC
:101FF00079FD00211020FFF775FD88E0DF4884425D
:1020000008D101212020FFF76DFD00212020FFF7DE
:1020100069FD7CE0DA48844208D101214014FFF7D1
:1020200054FD00216014FFF750FD70E0D548844254
:1020300009D10121C804FFF748FD00214FF4002019
:10204000FFF743FD63E0D048844209D10121080530
:10205000FFF73BFD00214FF48010FFF736FD56E0FF
:10206000CA48844209D101214805FFF72EFD00210D
:102070004FF40010FFF729FD49E0C548844208D11C
:1020800001214020FFF72EFD00214020FFF72AFD0F
:102090003DE0C048844208D101218020FFF722FDA5
:1020A00000218020FFF71EFD31E0BB48844208D1AB
:1020B00001218015FFF716FD0021A015FFF712FD85
:1020C00025E0B648844209D101210804FFF7FDFC50
:1020D00000214FF48030FFF7F8FC18E0B04884424C
:1020E00009D101214804FFF7F0FC00214FF4003032
:1020F000FFF7EBFC0BE0AB48844208D101218804D8
:10210000FFF7E3FC00214FF48020FFF7DEFC10BD59
:1021100000220288944B98420ED0994B98420BD0E3
:10212000B0F1804F08D0914B984205D0904B984227
:1021300002D0904B984204D14FF68F731A404B88CF
:102140001A438D4B984207D08C4B984204D04FF6DF
:10215000FF431A40CB881A4302808B8883850B8803
:102160000385814B98420BD0854B984208D08B4B0E
:10217000984205D08A4B984202D08A4B984201D1AE
:102180000B7A038601238382704770B500240022F6
:102190000023058C4FF6FE7635400584028C83883B
:1021A000048B4FF68F752C40B51E2C400D882C43A8
:1021B000751E2A400D892A434D882A436A4DA8423C
:1021C0000BD06F4DA84208D0744DA84205D0744D75
:1021D000A84202D0734DA84213D14FF6F7752A409A
:1021E0004D892A434FF6FB752A408D882A434FF6C6
:1021F000FF652B404FF6FF552B408D892B43CD8932
:102200002B4383800483CD888586028470BD70B59E
:10221000002400220023058C4FF6EF76354005841C
:10222000028C8388048B48F6FF752C404FF6FF45DF
:102230002C400D884FF6FF7606EA05252C434FF615
:10224000DF752A400D8906EA05152A434D8806EAFE
:1022500005152A43444DA84202D0494DA8421DD13C
:102260004FF67F752A404D894FF6FF7606EA051531
:102270002A434FF6BF752A408D8806EA05152A4382
:102280004FF6FF352B404FF2FF752B408D8906EA44
:1022900085052B43CD8906EA85052B43838004837E
:1022A000CD880587028470BD70B50024002200230C
:1022B000058C4FF6FF6635400584028C8388848B3D
:1022C0004FF68F752C404FF6FC752C400D882C4333
:1022D0004FF6FF552A400D894FF6FF7606EA052591
:1022E0002A434D8806EA05252A431F4DA84202D0FD
:1022F000234DA8421DD14FF2FF752A404D894FF65C
:10230000FF7606EA05252A434FF6FF352A408D88D9
:1023100006EA05252A434EF6FF752B404DF6FF755C
:102320002B408D8906EA05152B43CD8906EA051554
:102330002B4383808483CD888587028470BD70B5EC
:10234000002200230024058C4EF6FF7635400584DC
:10235000038C8488828B48F6FF752A404FF6FF4530
:102360002A400D8820E00000002C014000040040BD
:1023700000080040000C0040001000400014004025
:1023800000340140004C0140005001400054014025
:1023900000180040001C00400020004000400140A8
:1023A00000440140004801404FF6FF7606EA05254B
:1023B0002A434DF6FF752B400D8906EA05352B4360
:1023C0004D8806EA05352B43FA4DA84202D0FA4D56
:1023D000A84208D14BF6FF752C408D894FF6FF7649
:1023E00006EA85152C4384808283CD88A0F840506E
:1023F000038470BD828B4FF2FF331A408283828B3D
:102400004FF6FF7303EA01231A4382837047F0B546
:102410000C461546002200210026078C4EF6FF7C54
:1024200007EA0C070784828B018C4FF6FF7707EAD7
:10243000043640F6FF473A404FF6FF7707EA052794
:102440003A434FF6FF7707EA03373A43D94FB8428A
:102450000ED0D94FB8420BD0B0F1804F08D0D74F33
:10246000B84205D0D64FB84202D0D64FB84206D1B6
:102470004DF6FF77394046F48057394305E047F67B
:10248000FF57394044F48057394382830184F0BDBB
:10249000828B4FF6F3731A408283828B0A438283C6
:1024A0007047F0B50C461546002200210026078C27
:1024B0004FF6FF6C07EA0C070784828B018C4FF6FE
:1024C000FF7707EA04264FF60C773A404FF6FF777E
:1024D00007EA03172F433A43B64FB8420ED0B64F20
:1024E000B8420BD0B0F1804F08D0B44FB84205D0FD
:1024F000B34FB84202D0B34FB84206D14FF6FF57A0
:10250000394046F48077394305E04FF2FF573940B0
:1025100044F48077394382830184F0BD028B4FF20B
:10252000FF331A400283028B4FF6FF7303EA012345
:102530001A4302837047F0B50C461546002200216D
:102540000026078C4FF6EF7C07EA0C070784028B06
:10255000018C4FF6FF7707EA041640F6FF473A4032
:102560004FF6FF7707EA03373A434FF6FF7707EA5C
:1025700005273A438F4FB8420ED08F4FB8420BD049
:10258000B0F1804F08D08D4FB84205D08C4FB84283
:1025900002D08C4FB84206D14FF6DF77394046F073
:1025A0001007394305E04FF65F77394044F01007D4
:1025B000394302830184F0BD028B4FF6F3731A4056
:1025C0000283028B0A4302837047F0B50C4615461E
:1025D00000220021068C4FF6FE773E400684028BD7
:1025E000018C4FF60C7632407E1C06EA03162E4311
:1025F0003243704EB0420ED06F4EB0420BD0B0F1AD
:10260000804F08D06D4EB04205D06D4EB04202D022
:102610006C4EB04206D14FF6FD76314044F00106D3
:10262000314305E04FF6F576314044F00106314381
:1026300002830184F0BD70B505460C465D488542B5
:102640000ED05D4885420BD0B5F1804F08D05B4875
:10265000854205D05A48854202D05A48854200D169
:1026600000E000BF208850B92389A28861882846ED
:10267000FFF7ABFFE1882846FFF79EFF25E02088A3
:1026800004280AD12389A28861882846FFF753FFCE
:10269000E1882846FFF742FF17E0208808280AD182
:1026A0002389A28861882846FFF7FBFEE188284637
:1026B000FFF7EEFE09E02389A28861882846FFF72C
:1026C000A6FEE1882846FFF795FE70BD2DE9F04192
:1026D00005460C4600260127608808B9022600E05E
:1026E0000026A088012801D1022700E001272088C8
:1026F000A0B92389A28861882846FFF766FFE18890
:102700002846FFF759FF23893A4631462846FFF706
:1027100012FFE1882846FFF701FF13E02389A28812
:1027200061882846FFF707FFE1882846FFF7F6FE95
:1027300023893A4631462846FFF747FFE188284675
:10274000FFF73AFFBDE8F0810A884B881A438B886F
:102750001A43CB881A430B891A434B891A438B8936
:102760001A43A0F8442070474FF6FF718180002182
:102770000180C18041800172704700210180418049
:102780008180C180018141818181C18170470021A7
:1027900001804180012181800021C1800181704739
:1027A0000021018041808180C1800181418181813E
:1027B00070470000002C014000340140000400403C
:1027C00000080040000C004021B1028842F00102E4
:1027D000028004E002884FF6FE731A4002807047C0
:1027E00031B1B0F8442042F40042A0F8442005E0A2
:1027F000B0F84420C2F30E02A0F8442070471AB18A
:1028000083890B43838102E083898B4383817047F3
:102810008182704741EA0203A0F8483070471AB13C
:1028200083890B43838102E083898B4383817047D3
:1028300001894FF6F8721140018170470A46002164
:1028400001894FF68F73194011430181704730B5EC
:1028500004460D4629462046FFF7F0FF208940F048
:102860000700208130BD2DE9F04104460D46164693
:102870001F46602D06D13B46012231462046FFF718
:102880005AFE05E03B46012231462046FFF79DFEF9
:1028900029462046FFF7D2FF208940F0070020811B
:1028A000BDE8F08130B50C4600210189C9B24FF670
:1028B000FF7505EA0325154325432943018130BDF2
:1028C0002DE9F04105460E4617469846002443463A
:1028D0003A4631462846FFF7E5FF2C894FF6F87057
:1028E000044044F007044FF68F70044044F0700435
:1028F0002C81BDE8F081F0B504460D4616461F4612
:102900003B46324629462046FFF7CCFF208940F45B
:1029100080402081F0BD0185828270470A460021F7
:1029200001884FF68F731940114301807047F0B54D
:102930000C4615461E460021002200230189028B09
:10294000038C4FF6F877394021434FF6FC473A4065
:1029500040F201173A434FF6DD773B404FF6FF77E1
:1029600007EA06172F433B43018102830384F0BD2E
:102970000A460021018B4FF68F73194011430183E2
:1029800070470A460021018B48F6FF7319404FF645
:10299000FF7303EA02231943018370470A460021AB
:1029A000818B4FF68F7319401143818370470A461C
:1029B0000021818B48F6FF7319404FF6FF7303EA3D
:1029C000022319438183704721B1028842F08002BB
:1029D000028004E002884FF67F731A40028070473D
:1029E00021B1828842F00402828004E082884FF69E
:1029F000FB731A408280704721B1828842F008023E
:102A0000828004E082884FF6F7731A408280704714
:102A100021B1828842F00102828004E082884FF670
:102A2000FE731A40828070470A460021018B4FF6E0
:102A3000F77319401143018370470A460021018B47
:102A40004FF2FF7319404FF6FF7303EA0223194355
:102A5000018370470A460021818B4FF6F7731940B6
:102A60001143818370470A460021818B4FF2FF7327
:102A700019404FF6FF7303EA02231943818370471D
:102A80000A460021018B4FF6FB7319401143018365
:102A900070470A460021018B4FF6FF3319404FF66D
:102AA000FF7303EA02231943018370470A4600219A
:102AB000818B4FF6FB7319401143818370470A469F
:102AC0000021818B4FF6FF3319404FF6FF7303EA65
:102AD00002231943818370470A460021018B4FF678
:102AE0007F7319401143018370470A460021018B0F
:102AF000C1F30E014FF6FF7303EA0223194301836A
:102B000070470A460021818B4FF67F7319401143AD
:102B1000818370470A460021818BC1F30E014FF675
:102B2000FF7303EA02231943818370470A46002199
:102B3000018C4FF6FD7319401143018470470A461A
:102B40000021018C4FF6F77319401143018470473F
:102B50000A460021018C4FF6DF7319404FF6FF73D0
:102B600003EA02131943018470470A460021018CCD
:102B70004FF67F7319404FF6FF7303EA02131943B0
:102B8000018470470A460021018C4FF6FF5319401B
:102B90004FF6FF7303EA02231943018470470A4684
:102BA0000021018C4FF2FF7319404FF6FF7303EAC7
:102BB00002231943018470470A460021018C4DF617
:102BC000FF7319404FF6FF7303EA02331943018480
:102BD000704730B5002301248C40A3B2048C9C4381
:102BE0000484048C02FA01F5ADB22C43048430BD98
:102BF00030B5002304248C40A3B2048C9C4304848D
:102C0000048C02FA01F5ADB22C43048430BD70B5DA
:102C10000346002000241846183001258D40ACB230
:102C20001D8CA5431D8409B1082909D100EB610061
:102C3000056825F0700505600568154305600EE020
:102C40000D1FC5F34E052844056825F4E0450560D1
:102C500005684FF6FF7606EA02263543056070BD2B
:102C600021B1028842F00202028004E002884FF69D
:102C7000FD731A400280704721B1028842F00402BD
:102C8000028004E002884FF6FB731A40028070470E
:102C900021B1828842F08002828004E082884FF66F
:102CA0007F731A408280704702884FF6F7731A408C
:102CB000028002880A430280704782884FF68F7331
:102CC0001A40828082880A438280704702894FF6C8
:102CD000F8731A40028102890A430281704702890F
:102CE0004FF67F731A40028102890A4302817047BE
:102CF000818470478185704781867047018770475E
:102D000081877047A0F84010704702884FF6FF4354
:102D10001A40028002880A43028070470146888E6A
:102D200070470146088F70470146888F70470146FB
:102D3000B1F8400070470146888C70470146088D05
:102D4000704702460020138A0B400BB1012000E0BF
:102D500000207047CA430282704730B50246002007
:102D600000230024158A05EA0103958905EA010478
:102D700013B10CB1012000E0002030BDCA43028233
:102D800070470000002044490860091D0860091DC3
:102D90000860091D086041483F49143108607047C8
:102DA00000213D498279002A3AD00A461268036818
:102DB0009A430B461A600A1D126803689A430B1D5A
:102DC0001A60027911440A6803681A430A60324A99
:102DD0000832126803689A432F4B08331A601A1D91
:102DE000126803689A432C4B0C331A604279102AFC
:102DF0000ED11A1F126803681A43274B08331A6052
:102E00001A1D126803681A43234B0C331A600DE035
:102E10002149427911440A6803681A430A6005E0AF
:102E2000027911440A6803689A430A6070470021D6
:102E3000016001710C2141710021817170471649B7
:102E4000103109680143144A10321160704701467D
:102E50000020114A143212680A400AB1012000E031
:102E6000002070470C49143108607047014600206B
:102E70000022094B1B6803EA0102074B14331B684D
:102E80000B4013B10AB1012000E000207047024955
:102E9000143108607047000000040140FFFF0F007C
:102EA00010B50446FE48844209D101214806FEF7C8
:102EB00019FE00214FF00070FEF714FE08E001211A
:102EC0008806FEF70FFE00214FF08060FEF70AFE35
:102ED00010BD30B5024600200023146824F002041F
:102EE0001460146844F00104146000E05B1C546832
:102EF00004F001041CB94FF6FF74A342F6D15468E4
:102F000004F001040CB900206CE08C79012C04D190
:102F1000146844F08004146003E0146824F0800412
:102F20001460CC79012C04D1146844F0400414607E
:102F300003E0146824F0400414600C7A012C04D1DE
:102F4000146844F02004146003E0146824F02004A2
:102F500014604C7A012C04D1146844F010041460FD
:102F600003E0146824F0100414608C7A012C04D15E
:102F7000146844F00804146003E0146824F00804A2
:102F80001460CC7A012C04D1146844F00404146059
:102F900003E0146824F0040414608C78A407CD784E
:102FA00044EA05640D7944EA05444D7944EA055440
:102FB0000D886D1E2C43D461146824F00104146044
:102FC000002300E05B1C546804F001041CB14FF6C0
:102FD000FF74A342F6D1546804F001040CB1002040
:102FE00000E0012030BD10B50021837A012202FAF1
:102FF00003F1AC4A126842F00102AA4B1A60A94AD6
:103000001C3212688A43A74B1C331A60027BCAB970
:10301000A44A0C3212688A43A24B0C331A604288CD
:10302000C38842EA03439F4A4032847A42F83430EC
:103030000288838842EA03439A4A4032847A02EB48
:10304000C4025360027B012A19D1964A0C321268DD
:103050000A43944B0C331A604288038842EA0343C4
:10306000904A4032847A42F83430C288838842EAF7
:1030700003438C4A4032847A02EBC4025360C27A22
:103080003AB9884A121D12688A43864B1B1D1A6082
:1030900006E0844A121D12680A43824B1B1D1A6007
:1030A000028932B97F4A143212688A437D4B143345
:1030B0001A600289012A06D17A4A143212680A4338
:1030C000784B14331A60427B012A06D1754A1C32B0
:1030D00012680A43734B1C331A60724A126822F05A
:1030E0000102704B1A6010BD00218171C171017223
:1030F00041728172C1728170C1700321017102211C
:1031000041710121018070476649096841F0010160
:10311000644A11601146096843F60E729143614A90
:1031200011601146096841EA0021116011460968E1
:1031300021F001011160704721B1026842F4803230
:10314000026003E0026822F4803202607047E1B15D
:10315000026842F0800202604FF4C272125842F4D8
:1031600080734FF4C27213504FF4CA72125842F473
:1031700080734FF4CA7213504FF4D272125842F453
:1031800080734FF4D27213501BE0026822F0800269
:1031900002604FF4C272125822F480734FF4C2726C
:1031A00013504FF4CA72125822F480734FF4CA724B
:1031B00013504FF4D272125822F480734FF4D2722B
:1031C0001350704710B502460020936803F08063E7
:1031D000B3F1806F00D110E0936803F00063B3F1A6
:1031E000006F01D1012008E0936803F08053B3F130
:1031F000805F01D1022000E00420042879D002F58C
:10320000C07303EB00131B6803F0010402F5C073E5
:1032100003EB00131C600B7A7BB94B7A0C8843EAF2
:10322000445302F5C07404EB00142468234302F5F0
:10323000C07404EB0014236010E00B7A4C6843EA7E
:10324000C4034C7A234302F5C07404EB00142468D1
:10325000234302F5C07404EB001423608B7A03F05F
:103260000F038B7202F5C07303EB00135B6823F04E
:103270000F0402F5C07303EB00135C6002F5C0732A
:1032800003EB00135B688C7A234302F5C07404EBF4
:10329000001463608B7B1C064B7B44EA034403E011
:1032A00000640040006600400B7B44EA0323CC7AB4
:1032B000234302F5C07404EB0014A3608B7C1C064E
:1032C0004B7C44EA03440B7C44EA0323CC7B23433A
:1032D00002F5C07404EB0014E36002F5C07303EB65
:1032E00000131B6843F0010402F5C07303EB0013E5
:1032F0001C6010BD10B50246002321B1012907D082
:1033000002290FD109E09068F94C00EA04030BE0B0
:103310009068F84C00EA040306E09068F64C00EA76
:10332000040301E0002300BF00BFF44C181BA342BC
:1033300016D007DC83B16FF08060184470B10228AA
:1033400018D111E0B0F5007F10D0ED4C204448B109
:10335000B0F5003F0ED10BE002230DE000230BE09F
:10336000002309E0002307E0012305E0012303E037
:10337000012301E0002300BF00BFD8B210BD21B17E
:10338000012907D002290FD109E0826842F08002AA
:1033900082600AE0826842F40042826005E082684E
:1033A00042F40002826000E000BF00BF704710B529
:1033B00000F5D87303EB01131B6803F004031372C9
:1033C000137A53B900F5D87303EB01131B6840F26D
:1033D000FF7404EA5353136009E000F5D87303EB5C
:1033E00001131B686FF0604404EAD303536000F5D7
:1033F000D87303EB01131B6803F00203537200F54B
:10340000D87303EB01135B6803F00F03937200F5AD
:10341000D87303EB01135B681B0AD37400F5D873F0
:1034200003EB01139B68D37200F5D87303EB011310
:103430009B681C0A147300F5D87303EB01139B6897
:103440001C0C547300F5D87303EB01139B681B0E1F
:10345000937300F5D87303EB0113DB68D37300F5A6
:10346000D87303EB0113DB681C0A147400F5D873DE
:1034700003EB0113DB681C0C547400F5D87303EBE9
:103480000113DB681B0E937421B9C36843F020035A
:10349000C36003E0036943F02003036110BD21B959
:1034A000C26842F02002C26003E0026942F02002DA
:1034B000026170470246002019B9D36803F0030087
:1034C00006E0012903D1136903F0030000E00020A6
:1034D000704710B502460B4600204FF6FF71BBB98E
:1034E000146824F0020444F00104146000E0491E52
:1034F000546804F00304012C01D00029F7D154686A
:1035000004F00304012C01D0002032E0012030E05F
:10351000012B13D1146824F00304146000E0491E49
:10352000546804F003040CB10029F8D1546804F085
:1035300003040CB100201CE001201AE0022B17D17B
:10354000146824F0010444F00204146000E0491EF1
:10355000546804F00304022C01D00029F7D1546808
:1035600004F00304022C01D0002002E0012000E05E
:10357000002010BD014600200A6822F0010242F03E
:1035800002020A604A6802F00302022A00D1012006
:10359000704701464FF6FF7200200B6823F00203CC
:1035A0000B6000E0521E4B6803F00203022B01D1B6
:1035B000002AF7D14B6803F00203022B00D0012050
:1035C0007047014600208A6902F07000704701468A
:1035D00000208A69100E7047014600208A69C2F3F4
:1035E000074070471AB143690B43436102E04369E6
:1035F0008B434361704710B50246002001F470030D
:1036000043B19369C1F3130423400BB101202DE0B2
:1036100000202BE001F0807343B15368C1F3130421
:1036200023400BB1012021E000201FE001F00063E6
:1036300043B19368C1F3130423400BB1012015E09B
:10364000002013E001F0007343B1D368C1F3130409
:1036500023400BB1012009E0002007E01369C1F30A
:10366000130423400BB1012000E0002010BD002214
:10367000244B994202D10023836111E0C1F313026C
:1036800001F000730BB1C2600AE001F080630BB17E
:10369000026105E001F000630BB1826000E042606E
:1036A00070470246002002EA01030BB1012000E04E
:1036B0000020704770B504460D460026606928401A
:1036C000002872D0B5F5807F69D01DDC082D42D06E
:1036D00006DC012D2DD0022D31D0042D7FD134E018
:1036E000102D3ED0202D42D0402D78D145E0000055
:1036F000030000040003000800000310000100089C
:103700000001FFF77000F030B5F5004F61D009DC23
:10371000B5F5007F4AD0B5F5806F4DD0B5F5006F97
:103720005DD150E0B5F5803F2DD0B5F5003F56D1C5
:103730002FE0A0685549FFF7B4FF064651E0E06866
:103740000321FFF7AEFF06464BE0E0680821FFF7D4
:10375000A8FF064645E0E0681021FFF7A2FF0646F5
:103760003FE020690321FFF79CFF064639E020690E
:103770000821FFF796FF064633E020691021FFF786
:1037800090FF06462DE060680821FFF78AFF064695
:1037900027E060681021FFF784FF064621E0A0695A
:1037A0000121FFF77EFF06461BE01BE0A069022116
:1037B000FFF777FF064614E0A0690421FFF771FFC9
:1037C00006460EE00BE0A0697021FFF76AFF06468F
:1037D00007E060680421FFF764FF064601E0002669
:1037E00000BF00E00026304670BDB1F5007F3AD042
:1037F0000FDC202928D006DC01291CD004291DD08B
:10380000082940D11DE0402921D0B1F5807F3AD16F
:1038100026E0B1F5004F31D006DCB1F5806F25D040
:10382000B1F5006F2FD124E0B1F5803F12D0B1F592
:10383000003F28D111E0154A826025E00822C260CD
:1038400022E01022C2601FE0082202611CE0102268
:10385000026119E00822426016E01022426013E083
:103860000422426010E0042242600DE00422426023
:103870000AE0002282610422426005E000228261A7
:103880000422426000E000BF00BF70470101010058
:10389000704700000FB4044910B503AA029800F065
:1038A00035FB10BC5DF814FB600000202DE9F041F1
:1038B0000646002410687529314616A510D0AFF3CE
:1038C0000080002802DA404213A507E031688A0729
:1038D00001D512A502E0490704D511A5012401E094
:1038E000AFF3008000210A2206F1240709E0B0FBB3
:1038F000F2FCB0FBF2F302FB1C00303078541846A7
:10390000491C0028F3D123462A463046BDE8F04141
:1039100000F094B8000000002D0000002B00000013
:103920002000000070B504460D4621461068AFF334
:1039300000802188090502D50F4A7A4402E00E4A28
:103940007A440E32002104F1240305E000F00F0652
:103950000009965D5E54491C0028F7D120780023A9
:10396000000704D5702D02D009B102231132204680
:10397000BDE8704000F062B8C61400002DE9F041C7
:103980000F460546002028622846E968884770B33C
:10399000252805D0D5E901219047286A401CF2E787
:1039A000E9682846002688476C2804460AD0682C17
:1039B00008D04C2C35D06A2C31D0742C31D07A2CD4
:1039C0002FD016E0E968064628468847B0420446EC
:1039D00008D16C2E23D04FF480662846E9688847CA
:1039E000044606E06C2E03D04FF4807601E01EE022
:1039F0004026E4B1A4F14100192802D8203446F44D
:103A000000663A46214628462E60FCF7CBFB60B1A3
:103A1000012808D0FF1D27F007070837B4E78026E4
:103A2000DBE70026D9E73F1DAEE72046B2E7286A6C
:103A3000BDE8F08170477047704770472DE9F04747
:103A40000D4699469246044600F12408016888060E
:103A500004D5E06921F01001216000E00120A842B6
:103A600001DD471B00E00027A1697A1902EB09007C
:103A7000081AA0612078C00602D42046AFF3008067
:103A8000002608E0D4E901211AF806009047206AD0
:103A9000401C761C20624E45F4DB2078C0060AD517
:103AA0002046AFF3008006E0D4E9012130209047A2
:103AB000206A401C2062381EA7F10107F4DC07E0F1
:103AC000D4E9012118F805009047206A401C2062C3
:103AD000281EA5F10105F3DC2046AFF30080207815
:103AE000000602D50220BDE8F0870120FBE7704701
:103AF0002DE9FF4F0C461E464FF0FF378BB0D2E941
:103B00000001DDF860800A908A46C1F30A5505B9C4
:103B10003D46002108464FF00000BAF1000F00F4C6
:103B2000400005DA00EB80004FF4400101EA50004C
:103B30004FEA9059B9F1010F00DDB9460A9850EAF1
:103B40004A000ED044F61050A5F2FF3545432F141D
:103B5000B8F1000F1ED07542291E1EDDC9F100020A
:103B60001CE0B8F1010F4FF0000001D0302103E05C
:103B7000F24305E02154401CB042FBDB30460022FA
:103B8000002121540B99C1F80880C1E900200FB031
:103B9000BDE8F08FBD1B6D1CDEE74A4600DA6942C6
:103BA00006A800F067FA06AB93E8070003AB83E8CA
:103BB000070050460A9900F045FB8DE80700A0F584
:103BC00000501F3800900398002D0ADD42F21F01BB
:103BD0004A460844002303A90390684600F0AEFD5E
:103BE00009E0A0F500504A461F38002303A90390BE
:103BF000684600F0B8FD8DE807000004000C03D013
:103C00004FF0FF30410800E01046B8F1000F03D03C
:103C10000022009215461EE0751E05D400F08CF9B6
:103C2000303262556D1EF9D5B3460122084302D0E9
:103C300000227F1C04E02078302801D100227F1E62
:103C4000002A099784D01DE0112D07DA00F074F9DD
:103C5000303262556D1C50EA0102F5D1084302D0A2
:103C60000098C8B10EE00021681E05E0235C625C8C
:103C700063542254401E491C8142F7DBAB46A81B0B
:103C8000401E0990002004F80B000B98099AC0F818
:103C90000880C0E9002B7AE711264FF0000857E7AB
:103CA0002DE9F04F88460446D21D22F0070191B05D
:103CB000D1E90001CDE90A0100F08CFE02460B9823
:103CC000C00F01D02D2007E02068810701D52B20EF
:103CD00002E0202101EAC000032A099001D0072A4E
:103CE00005DB03464146204600F084F90BE12078CD
:103CF000800601D5E06900E00620B8F1650F814635
:103D000006D0B8F1660F18D0B8F1670F70D131E066
:103D10000020B9F1110F009001DB112301E009F13E
:103D200001030AAA01A90CA8FFF7E2FEDDE90C7065
:103D3000002609F10105834647E001204B4600902B
:103D40004FF000470AAA01A90CA8FFF7D1FEDDE950
:103D50000DB00C995D46002610B909F101000D184F
:103D6000B9EB050003D4C0F1FF3609F10105A5EB5D
:103D700009002BE0B9F1010F01DA4FF00109002031
:103D8000B9F1110F0090484601DD112300E0034610
:103D90000AAA01A90CA8FFF7ABFEDDE90C704D469D
:103DA00000268346207800070AD4AB4500DA5D463A
:103DB00001A8012D04DD411911F8011C302907D09B
:103DC0004F4502DA17F1040F04DA012082460FE0B2
:103DD0006D1EEEE7002F02DCED1B3E4403E0781C75
:103DE000A84200DD7D1CB81B00F1010A4FF000471E
:103DF0002078000703D4AA4501DB4FF0FF3A0021E9
:103E0000B7F1004F0DF143088DF8431024D0022084
:103E10002B23002F01DA7F422D230A21021EA0F15D
:103E2000010000DC5FB197FBF1FC97FBF1F201FBB5
:103E30001C7C17460CF1300C08F801CDEEE7A8F118
:103E4000010003702188090501D5452100E06521A5
:103E5000A0F1010800F8011C09980FA9A1EB0807BF
:103E6000FF1D00B10120411901EBEA70A16938443E
:103E7000081A401EA0612078C00602D42046AFF385
:103E80000080099828B1D4E901219047206A401C9C
:103E900020622078C00622D52046AFF300801EE0C5
:103EA000002E04DBB34502DD01A8805D00E0302078
:103EB000D4E901219047206A401C2062761CAAF1B7
:103EC00001005FEA000A0AD100F032F8C068016818
:103ED000405CD4E901219047206A401C2062281EE2
:103EE000A5F10105DCDC07E0D4E9012118F8010B9C
:103EF0009047206A401C2062381EA7F10107F3DCBE
:103F00002046AFF30080032011B041E6074B70B5A7
:103F10000D467B4400F05BF80446284600F01CF98F
:103F200010B14FF0FF3070BD204670BDF5D1FFFFDE
:103F3000004870476801002030B5B0F10A024FEA2E
:103F4000900E71F100034EEA817EB0EB0E0061EB42
:103F500091014FEA101E4EEA017E10EB0E0041EB7C
:103F600011114FEA102E4EEA016E10EB0E0041EBDC
:103F700011214FEA104E4EEA014E10EB0E0041EBBC
:103F80001141401841F100014FEAD00040EA417070
:103F90004FEAD10110EB80054FEA810444EA9074A6
:103FA00044EB01046D1944EB0404521BA3414FF090
:103FB000000348BF0A3200D530BD401C41F100016A
:103FC00030BD000001694A1C02610878704700B5E5
:103FD0008FB0CDE901310021059105497944CDE942
:103FE000031011466846FFF7C9FC0FB000BD000082
:103FF000E5FFFFFF2DE9F0411F4604460326016857
:10400000072A01F4006004DB08B116A505E016A537
:1040100003E008B115A500E015A521F0100020600F
:10402000A069C01EA0610FB1401EA0612046AFF381
:1040300000804FB1D4E9012138469047206A401CE6
:104040002062C01C206206E0206AFAE7D4E9012160
:1040500015F8010B9047761EF8D22046AFF300808A
:10406000BDE8F0814E414E006E616E00494E460043
:10407000696E66002DE9F047814616468AB03548DC
:1040800078440DC88DE80D0032487844801C03AC9C
:104090000DC884E80D0041F69B300844372190FBA1
:1040A000F1F290FBF1F5A5F1800501FB12041B3C38
:1040B00002D56442012000E00020DFF898A080468D
:1040C0000027FA44AAF1BE0A0EE0E0070AD0324601
:1040D000684607EB470101230AEB810100F043FB2F
:1040E0008DE8070064107F1C002CEED1194F7F442F
:1040F000AE3F19E0E80715D007EB04100DF1180AE0
:1041000090E80E008AE80E00C068F04201D19819CC
:1041100008903246012306A903A800F024FB03AB54
:1041200083E807006D10641C002DE3D14FF00103FC
:1041300032466946B8F1000F03A802D000F0FEFA3B
:1041400001E000F010FBC9E90001C9F808200AB03D
:10415000BDE8F087240E0000007B00F0800070476F
:1041600000487047480100207546FFF7F9FFAE464A
:1041700005006946534620F00700854618B020B573
:10418000FDF7ECF8BDE820404FF000064FF00007C7
:104190004FF000084FF0000B21F00701AC46ACE8EF
:1041A000C009ACE8C009ACE8C009ACE8C0098D465C
:1041B000704710B50446AFF300802046BDE81040BC
:1041C000FCF710B84FF0013C50F8042B51F8043BB9
:1041D0009A4221D1A2EB0C03934313EACC1317D1DB
:1041E00050F8042B51F8043B9A4215D1A2EB0C0372
:1041F000934313EACC130BD150F8042B51F8043B32
:104200009A4209D1A2EB0C03934313EACC13DBD0FF
:104210004FF00000704700BFD01A01BAB1FA81F127
:1042200001F0180122FA01F0CB40C1F12001DBB20C
:10423000C0B2C01A2CFA01F3D11A914311EAC3118A
:10424000E6D170475FEA400C08BF91F0000F4FEADB
:104250008C234FEAC12243EA51514FEA1C5018BF48
:1042600000F5F0404FEA300018BF41F000415FEA2E
:104270006C5C00F02980BCF1FF3F08BF40F080403B
:104280007047130C06BF12044FF0100C4FF0000CD7
:10429000130E04BF12020CF1080C130F04BF12011D
:1042A0000CF1040C930F04BF92000CF1020CD30F1D
:1042B00004BF52000CF1010C11464FF00002A0F1B6
:1042C0001F00A0EB0C00704711F0004F08BF7047B3
:1042D00031F000413FF4D5AF0B0C06BF09044FF09D
:1042E000100C4FF0000C0B0E04BF09020CF1080C6F
:1042F0000B0F04BF09010CF1040C8B0F04BF8900E4
:104300000CF1020CCB0F04BF49000CF1010CCCF1F5
:104310002003A0EB0C0022FA03F302FA0CF241EAAC
:10432000030100F10100704720F07F4C80EA030098
:1043300023F07F47ACEB070303F57C5300F000400C
:1043400003F1FF032DE980494FEA154B09B44FEA09
:10435000144325EA0B4E24EA03480FF2042606EB29
:10436000132749083E785FEA320203FB0667C7F568
:10437000000707FB06F64FEA54374FEAD64606F128
:10438000020607FB066CCCF1005C4FEA1C472CEAE6
:10439000074C07FB06F40CFB06F504EB15464FEA49
:1043A000961634BF00204FF000404FEAD13706FB8D
:1043B00007FC4FEA1C4C0CFB0BF7D21B03FB0CF762
:1043C00061EB07010CFB0EF7B0EB074072EB1742F5
:1043D0000CFB08F734BFA2EB0742B2EB074261EBDC
:1043E00017414FEA0C444FEA910706FB07FC4FEADE
:1043F0001C4C0CFB0BF7B0EBC74072EB573203FBC6
:104400000CF734BFA2EBC742B2EBC74261EB5731A6
:104410000CFB0EF7B0EBC70072EB57720CFB08F702
:1044200034BFA2EBC702B2EBC70261EB5771039F27
:104430004FEA816141EA921104EBCC044FEAD13793
:104440004FEA826206FB07FC42EA90124FEA806064
:104450004FEA1C4C0CFB0BF7D21B03FB0CF761EB78
:1044600007010CFB0EF7B0EB074072EB17420CFB99
:1044700008F734BFA2EB0742B2EB074261EB1741EA
:104480004FEA8C554FEA910704EB9C2406FB07FC8E
:104490004FEA1C4C0CFB0BF7B0EBC74072EB5732EA
:1044A00003FB0CF734BFA2EBC742B2EBC74261EB90
:1044B00057310CFB0EF7B0EBC70072EB57720CFBD9
:1044C00008F734BFA2EBC702B2EBC70261EB57712A
:1044D00015EB4C254FEA816141EA92114FEA826265
:1044E0004FEAD13742EA901206FB07FC44F1000480
:1044F0004FEA80604FEA1C4C0CFB0BF7D21B03FB0E
:104500000CF761EB07010CFB0EF7B0EB074072EB09
:1045100017420CFB08F734BFA2EB0742B2EB07428D
:1045200061EB174115EB1C154FEA813141EA9241CD
:104530004FEA823242EA90424FEA80304FEA0C76EC
:1045400044F1000448EA03434EEA0B484FF0000EE2
:10455000B2EB080C71EB030724BF624639464EEB01
:104560000E0E4FF0000B0018524149414BEB0B0B64
:10457000B2EB080C71EB03077BF1000B24BF624622
:1045800039464EEB0E0E4FF0000B001852414941D8
:104590004BEB0B0BB2EB080C71EB03077BF1000B41
:1045A00024BF624639464EEB0E0E51EA020718BF91
:1045B00046F0010616EB0E7655F1000254F10001AB
:1045C00003D5BDE88901BDE80088BDE88901BDE8E3
:1045D0000048B619524141EB0101A3F101037047B4
:1045E00080807F7E7D7C7B7A797877767675747330
:1045F000727171706F6E6E6D6C6C6B6A6A696868EF
:10460000676666656464636362616160605F5F5E84
:104610005E5D5D5C5C5B5B5A5A59595858575756FA
:10462000565555555454535352525251515050505F
:104630004F4F4F4E4E4D4D4D4C4C4C4B4B4B4A4AB1
:104640004A494949484848474747474646464545F5
:10465000454444444443434343424242424141412E
:10466000002B9C4630D477002BD01CB54FEA37077F
:1046700003B44FF010004FF01001BAF1000F06D054
:10468000BCF1000FDCBF40F0080040F008014FF023
:1046900000000FBCBDE810400BF1010BBBF1010F96
:1046A00008BF5FEA170722BF12F1010211F10101F1
:1046B0004FF0004143F1000300F0004043EA0000E6
:1046C0007047F9D35708D0E746EA064613F1400F82
:1046D0004FEA16461FDD13F1200FDFBF16430A46CF
:1046E000002120335B42BED0C3F1200746EA0646D4
:1046F00002FA07F74FEA164646EA0706C3F1200713
:1047000022FA03F201FA07F721FA03F14FF000034E
:1047100042EA0702A7E746EA020646EA06464FEAE9
:10472000164646EA0106BCBF46EA0646360C4FF07E
:1047300000034FF000024FF0000194E72DE9804C98
:104740009A46934670B491E8380007C831EA400CA5
:1047500048BF34EA430C03D5FFF7E6FDFFF780FFBF
:10476000F0BCBDE8008C2DE9804C9A46934670B4AD
:1047700091E8380007C810F0804F08BF13F0804F51
:1047800003D100F005F8FFF76BFFF0BCBDE8008C2B
:1047900020F07F4780EA030023F07F4C07EB0C03F7
:1047A000A3F57C5300F00040A3F1FE0392F0000F4C
:1047B00000F0B38095F0000F00F077802DE90149FB
:1047C0004FEA11404FEA144621EA004800FB06FC7C
:1047D00024EA064708FB06F607FB08F800FB07F784
:1047E00018EB06484CEB164C4FEA124B18EB0748F7
:1047F0004FEA15464CEB174022EA0B4E0BFB06FC2A
:1048000025EA06470EFB06F607FB0EFE0BFB07F735
:104810001EEB064E4CEB164C4FF000061EEB074EFF
:104820004CEB174B18EB0B0840F1000018EB0E0B8C
:1048300058EB000840F100008F1A4FF000013CBF18
:10484000C943661B14BFB5EB040C00213CBFC94330
:10485000F61B4FEA17444EEA8E0E27EA04454FEA4C
:104860001C4704FB07622CEA074C05FB07F70CFB0F
:1048700005F604FB0CFC16EB074642EB174216EB61
:104880000C4642EB1C421BEB060658EB0202414170
:1048900046EA9E0601D5BDE80189B619524141EBB1
:1048A0000101A3F10103BDE801894FEA14454FEA74
:1048B000114724EA054621EA074C05FB07F406FBED
:1048C00007F70CFB06F105FB0CFC11EB074144EB71
:1048D00017444FEA124711EB0C4144EB1C4422EA07
:1048E000074C05FB07F206FB07F70CFB06F605FB7A
:1048F0000CFC16EB074642EB174216EB0C4642EB5C
:104900001C456A1854F1000148BF7047B61952415E
:1049100041EB0101A3F10103704795F0000F37D07F
:104920004FEA11424FEA144721EA024624EA074CB3
:1049300002FB07F106FB07F70CFB06F402FB0CFC7D
:1049400014EB074441EB17414FEA154714EB0C44B5
:1049500041EB1C4125EA074C02FB07F506FB07F774
:104960000CFB06F602FB0CFC16EB074645EB174565
:1049700016EB0C4645EB1C42121951F1000148BFE1
:104980007047B619524141EB0101A3F10103704791
:104990004FEA14454FEA114724EA054621EA074C3D
:1049A00005FB07F106FB07F70CFB06F24FF00006CC
:1049B00005FB0CFC12EB074241EB174112EB0C42DA
:1049C00051EB1C4148BF7047921841EB0101A3F124
:1049D00001037047490050EAC12018BF04204A0D66
:1049E00018BF40F0010040F2FF72B2EB515F08BF08
:1049F00040F00200012808BF0520704710B50029CB
:104A00000AD00878002807D005487844FFF7DAFB79
:104A1000002801D0002010BD0248784410BD0000DD
:104A2000D6040000CE0400000808A0F500114FEAEB
:104A30003101704743004FEAD30C4FEA3C0C43402E
:104A40001FBF40070CF1605113F0FE4F70471CF080
:104A5000006F03D100200CF0004170470CF00043C0
:104A600043EA507010B540EACC0000F07EF900BF78
:104A7000000000924FEA0001FFF7D6BF4FF000415F
:104A80004FF00000A1F50021704700004FF47F0CAB
:104A90001CEAD0121EBF1CEAD11392EA0C0F93EA53
:104AA0000C0F00F0858090EA010F48BF42F480723D
:104AB00040F4000C41F400002CF07F4120F07F40D6
:104AC00000B58142A2EB03020FF2081CACEB504E82
:104AD000C0F100009EF800E04FEA4E0E00FB0EFC15
:104AE00038BF49004FEA2C1C02F5FA020CFB0EF30A
:104AF0004FEACE1E4FEA112C4FEAC1210EEB635E46
:104B000042EB22420EFB0CFC4FEA1C5300FB03114C
:104B10004FEA112C4FEA01310EFB0CFC4FEADC4C42
:104B200000FB0C11C14228BF09184CEB03335DF8A0
:104B300004EB10EB410143EBC250B2F57C0F38BFE0
:104B4000704729D512F0F00F1CBF00F1C04000F0F3
:104B500000407047008182838485868788898B8C9A
:104B60008D8E8F919293959697999A9C9D9FA0A2D6
:104B7000A3A5A7A8AAACAEB0B2B3B5B7B9BCBEC026
:104B8000C2C5C7C9CCCED1D4D7D9DCDFE2E6E9ECC7
:104B9000F0F3F7FAFE0000004FEA400C0CF1807CC5
:104BA000BCF17E4F28BF7047B0F1C04000F023B980
:104BB00090EA010F0CEAD11348BF42F480726245BB
:104BC00038BF634507D213F47F0F16D080EA010087
:104BD00000F00040704710B500F0C7F8097EFC3EB9
:104BE00000F005B880EA010000F00040704780EA5C
:104BF000010000F0004000F0FEB812F47F0F04BF87
:104C00000248704780EA010000F0F5B80000C07F5C
:104C100010F0004148BF4042B0FA80F310FA03F2AE
:104C2000C3F19D030BD051EAC35101EB122053068F
:104C300038BF704700F1010008BF20F00100704745
:104C4000B0FA80F310FA03F2C3F19D030AD0D9053C
:104C500001EB1220530638BF704700F1010008BF76
:104C600020F00100704700004FF47F0C1CEAD012C6
:104C70001EBF1CEAD11392EA0C0F93EA0C0F00F04E
:104C8000478090EA010F48BF42F480724FF0004C19
:104C90004CEA00204CEA012102EB0302A0FB0113C5
:104CA000A2F50002002918BF43F001035B0028BFF2
:104CB0004FEA330342EB22425FEA132C4CEBC25023
:104CC0002EBFBCEB436FB2F57C0F70474FEA036C0D
:104CD000BCF1004F08BF20F00100B2F57C0F38BFD7
:104CE00070470BD582F0FF0212F5803FC8BF7047B6
:104CF00000F1C040D8BF00F00040704700F5000C44
:104D00005FEA4C0C48BF7047B0F1C04000F073B888
:104D100090EA010F0CEAD11348BF42F48072624559
:104D200038BF634504D280EA010000F000407047BC
:104D300010B500F01AF800BF8900013E00F007B876
:104D400000F009B85FEA410C5FEA1C6C08D080EA09
:104D5000010000F050B85FEA400C5FEA1C6CF6D12D
:104D60004FF00040A0F5800070470EF1020E2EF0CB
:104D7000030E5EF8044B244204D44FEA4102B2F120
:104D80007F4F11D84FEA4003B3F17F4F0CD80ED1BB
:104D90004FEAD07CB2F17F4F0CEB4C0C0CF1020CC3
:104DA00008BF4CEBD17C04E04FF0080C01E04FEA67
:104DB000D17C0CEB4C0324FA03F404F00704B4F1A7
:104DC000040C06D20EEB840CBDE810404CF0010C34
:104DD0006047DFE80CF0070802024FF00040A0F542
:104DE000800010BD0846420018BFD2F1807288BF13
:104DF00000F0004010BDFF2141EAD050C0057047CF
:104E0000FEF74EBF30313233343536373839414210
:104E1000434445464030580030313233343536371C
:104E20003839616263646566403078000240000092
:104E3000000000A00000000005400000000000C8C5
:104E4000000000000C4000000000409C000000003A
:104E5000194000000020BCBE0000000034400000EB
:104E6000BFC91B8E00000004B5400000504BCFD0DE
:104E70006607E2CF010000006C4100003E8251AAAB
:104E8000DFEEA73401000000D9420000DCB5A0E24B
:104E90003A301F97FFFFFFFFB4450000FD25A0C873
:104EA000E9A3C14FFFFFFFFFFF3F000000000080AC
:104EB00000000000FF3F0000000000800000000034
:104EC000FC4E000800000020800000006C0100087B
:104ED0007C4F00088000002028070000880100089F
:104EE0001C00000043000000F8FFFFFF0C00000062
:104EF0000E0000000F0000002E000000010203045D
:104F0000050607080000000000000000040C0D1159
:104F1000420000010100000000A24A04000000005D
:104F20000000000001020304060708090100000058
:104F30000000000000000000000000000000E80386
:104F40004C04B00414057805DC054006A4060807E7
:104F50006C07C60700000100000000000000000010
:104F60000000000000000000000102030401020331
:0C4F7000040607080902040608000000FF
:0400000508000131BD
:00000001FF
