:020000040800F2
:1000000088070020D90E0008B5030008B7030008D0
:10001000BB030008BF030008C30300080000000082
:10002000000000000000000000000000C7030008FE
:10003000C903000800000000CB030008CD0300083E
:10004000F30E0008F30E0008F30E0008F30E00088C
:10005000F30E0008F30E00081F0900082D09000820
:100060003B090008F30E0008F30E0008F30E000829
:10007000F30E0008F30E0008F30E0008F30E00085C
:10008000F30E0008F30E0008F30E0008F30E00084C
:10009000F30E0008F30E0008F30E0008F30E00083C
:1000A000F30E0008B10A0008F30E0008FD0A00086C
:1000B000F30E0008A9090008F30E0008F30E00086B
:1000C000F30E0008F30E0008F30E0008F30E00080C
:1000D000F30E0008070E0008430E0008F30E000898
:1000E000F30E0008F30E0008F30E0008F30E0008EC
:1000F000F30E0008F30E0008F30E0008F30E0008DC
:10010000F30E0008F30E0008F30E0008F30E0008CB
:10011000F30E0008F30E0008F30E0008F30E0008BB
:10012000F30E0008F30E0008F30E0008F30E0008AB
:1001300000F002F800F03AF80AA090E8000C8244BF
:100140008344AAF10107DA4501D100F02FF8AFF29C
:10015000090EBAE80F0013F0010F18BFFB1A43F0A5
:1001600001031847F42A0000142B0000103A24BFA2
:1001700078C878C1FAD8520724BF30C830C144BF0C
:1001800004680C607047000000230024002500264E
:10019000103A28BF78C1FBD8520728BF30C148BFEA
:1001A0000B6070471FB51FBD10B510BD02F00EFDEE
:1001B0001146FFF7F7FF00F074F802F040FD03B4BA
:1001C000FFF7F2FF03BC00F069FD000010B5044624
:1001D0002146664801F0CCFB00BF4021634801F096
:1001E00035FC0028F9D010BD10B50121604800F0A1
:1001F000F4FF68B901215E4800F0EFFF20B910213B
:100200005B4801F006F803E01021594800F0FFFFB9
:100210000221574800F0E1FF68B90221544800F07C
:10022000DCFF20B92021524800F0F3FF03E0202139
:100230004F4800F0ECFF01214D4800F0CEFF4D4942
:100240000978884202D001204B49087002214848B1
:1002500000F0C3FF49490978884202D0012046498D
:1002600008700121424800F0B8FF4249087002219D
:100270003F4800F0B2FF414908703F48007801282C
:100280000ED100203C4908703A4909781031C8B2B3
:10029000FFF79CFF394909782031C8B2FFF796FF74
:1002A00010BD4FF4FA64012140F2FD1001F0BFF9D6
:1002B0000121334800F0CFFF00F086FC4FF4A0602E
:1002C00000F02AFE4FF4E13000F051FD2DA002F0C5
:1002D000D5FB00F06DF941F61F41092000F038FB15
:1002E000642000F0AEFC0121214800F076FF214996
:1002F000087002211E4800F070FF2049087033E0AA
:1003000024480088A8B9642022490880FFF76CFFC0
:1003100000F056FC601E84B25CB90421144800F061
:1003200078FF44F6206000F08CFC0421104800F0B7
:100330006EFF1948008808B9012000E00020174925
:100340000978084080B116A002F0A4FB05462A46B1
:10035000164913A002F0BDFB08B94FF4FA6400205F
:10036000134908800D490870CAE7000000380140B1
:1003700000080140000000200200002001000020D1
:100380000002300075617274315F696E69745F6F6D
:100390006B0D0A001A0000204200002044000020DB
:1003A0004136413835353636000000005C0000200B
:1003B00040000020704700BFFEE700BFFEE700BF1F
:1003C000FEE700BFFEE770477047704770470000C8
:1003D0000CB50020019000906C48006840F480301B
:1003E0006A49086000BF6948006800F40030009066
:1003F0000198401C0190009820B94FF6FF710198B8
:100400008842F0D16148006800F4003010B101204A
:10041000009001E0002000900098012843D15C4842
:10042000006840F010005A4908600846006820F053
:10043000030008600846006840F002000860534866
:10044000406852494860084640684860084640682D
:1004500040F4806048600846406820F47C104860A2
:100460000846406840F4E81048600846006840F0DC
:100470008070086000BF4548006800F000700028E8
:10048000F9D04248406820F00300404948600846DF
:10049000406840F00200486000BF3C48406800F0FF
:1004A0000C000828F9D10CBD10B5FFF791FF10BD65
:1004B00010B53648006840F001003449086008462D
:1004C000406834490840314948600846006832496C
:1004D00008402E4908600846006820F48020086023
:1004E0000846406820F4FE0048604FF41F00886012
:1004F000FFF7DAFF4FF000602849086010BD10B523
:10050000002100200022214B5B6803F00C0121B187
:10051000042906D0082928D107E0214B214C23606B
:1005200027E01F4B1F4C236023E0184B5B6803F44C
:100530007010164B5B6803F48032022303EB90408B
:1005400022B9194B4343174C23600DE00F4B5B68F6
:1005500003F4003323B1144B4343124C236003E0F4
:100560000F4B43430F4C236003E00D4B0D4C2360B6
:1005700000BF00BF054B5B68C3F303130B4CE15C8A
:10058000084B1B68CB40074C236010BD0010024095
:10059000002002400000FFF8FFFFF6FE08ED00E03B
:1005A00000127A000400002000093D00080000202D
:1005B00008B50320ADF8000048208DF803000320A3
:1005C0008DF802006946144800F074FD3C20ADF837
:1005D000000010208DF8030003208DF8020069460A
:1005E0000D4800F067FD04210B4800F010FE0821C3
:1005F000094800F00EFE08BD10B5044624B94FF4BA
:100600008051054800F005FE012C03D1210302486A
:1006100000F0FDFD10BD00000008014008B50121FB
:10062000142001F004F840F2FF70ADF800004820FB
:100630008DF803006946834800F03CFD4FF40060EC
:10064000ADF8000028208DF8030069467D4800F0D1
:1006500031FD08BD10B5044614B101207A49087077
:1006600079480078002870D00121764800F0B5FD67
:10067000D8B30221734800F0B0FDB0B30421714833
:1006800000F0ABFD88B308216E4800F0A6FD60B312
:1006900010216C4800F0A1FD38B32021694800F01A
:1006A0009CFD10B34021674800F097FDE8B1802120
:1006B000644800F092FDC0B14FF48071614800F0D1
:1006C0008CFD90B14FF400715E4800F086FD60B182
:1006D0004FF480615B4800F080FD30B14FF4006161
:1006E000584800F07AFD01285FD10A2000F0A9FAED
:1006F0000020554908700121524800F06EFD08B9EC
:10070000012010BD02214F4800F067FD08B902200A
:10071000F7E704214B4800F060FD08B90320F0E73B
:100720000821484800F059FD08B90420E9E71021E4
:10073000444800F052FD08B90520E2E72021414875
:1007400000F04BFD10B90620DBE72EE040213D48CC
:1007500000F043FD08B90720D3E78021394800F0B5
:100760003CFD08B90820CCE74FF48071354800F013
:1007700034FD08B90920C4E74FF40071314800F096
:100780002CFD08B90A20BCE74FF480612D4800F029
:1007900024FD08B90B20B4E74FF40061294800F0AC
:1007A0001CFD01284BD10C20ABE70121254800F0AE
:1007B00014FD012843D10221224800F00EFD01283A
:1007C0003DD104211F4800F008FD012837D1082140
:1007D0001C4800F002FD012831D11021194800F019
:1007E000FCFC01282BD12021164800F0F6FC012842
:1007F00025D14021134800F0F0FC01281FD18021B1
:10080000104800F0EAFC012819D101020D4800F05F
:10081000E4FC012813D141020A4800F0DEFC012863
:100820000DD18102074800F0D8FC012807D1C10290
:10083000044800F0D2FC10B90120034908700020E0
:100840005FE7000000100140180000200EB50121F4
:10085000084600F0ECFEFFF7E1FE0021022000F068
:100860003FFD0120019000208DF808000C208DF83C
:10087000090001208DF80A0001A802F05DF80121AD
:10088000022000F02DFD0220019000208DF80800CC
:100890000C208DF8090001208DF80A0001A802F053
:1008A0004BF80221084600F01BFD042001900020B7
:1008B0008DF808000C208DF8090001208DF80A0041
:1008C00001A802F039F806208DF8000002208DF80A
:1008D00001008DF8020001208DF80300684600F049
:1008E00020FB07208DF8000002208DF80100012078
:1008F0008DF802008DF80300684600F012FB082016
:100900008DF8000002208DF8010000208DF8020013
:1009100001208DF80300684600F003FB0EBD10B502
:1009200001200A49087002F07EF810BD10B50220BF
:100930000649087002F077F810BD10B5032003498E
:100940000870042002F06FF810BD000019000020AC
:100950007FB505460C460121022000F075FEADF87A
:100960000850ADF804400020ADF80A00ADF80600CC
:1009700001A91C4801F098F901221146194801F01B
:100980000AFD1D208DF8000003208DF801008DF870
:10099000020001208DF80300684600F0C2FA012130
:1009A000104801F0DDFC7FBD10B501210D4801F0BC
:1009B000A0FFA8B101210B4801F0ACFF0A48008854
:1009C000002804DD08480088401E074908800748C1
:1009D0000088002804DD05480088401E034908807F
:1009E00010BD0000000400401A000020420000205A
:1009F00030B589B005460C460121C80200F017FE4B
:100A00000121042000F013FE4FF48070ADF82000A7
:100A100018208DF8230003208DF8220008A95A48D9
:100A200000F048FB01208DF81C00ADF81850ADF81F
:100A300014400020ADF81A00ADF8160005A953487F
:100A400001F032F97020ADF804000120ADF8060085
:100A50004FF47A70ADF80A000220ADF80C0001A93D
:100A60004A4801F05EF90121484801F085FC08215F
:100A7000464801F0A5FD0121444801F071FD012225
:100A80001146424801F087FC19208DF80000002033
:100A90008DF801008DF8020001208DF803006846F2
:100AA00000F03FFA0121394801F05AFC09B030BD8D
:100AB00010B50121354801F01CFFF0B10121334888
:100AC00001F028FF30480C30006880F400602E49A7
:100AD0000C3108602E48007838B1C9142A4800F05B
:100AE00096FB00202A49087007E04FF40061264871
:100AF00000F08FFB01202649087010BD10B50221BF
:100B0000224801F0F6FE01283CD102211F4801F0E5
:100B100001FF1D480C30006880F400601A490C3158
:100B200008600021194801F0AFFE1A4800780A2831
:100B300021DA1748007858B11748164A127830F869
:100B40001210124801F0A4FE00201149087012E0B2
:100B50001148104A127830F81200C0F5FA6081B2DC
:100B60000A4801F095FE01200949087009480078FB
:100B7000401C08490870074800780A2802D1002064
:100B80000449087010BD000000080140002C01401D
:100B9000360000201D0000201E00002070B5054614
:100BA0000C4645F2555001F047FF284601F047FF3B
:100BB000204601F047FF01F048FF01F04BFF70BDF8
:100BC00010B501F042FF10BD10B56FF0040000F049
:100BD000F2F92E4800682E49B0FBF1F02D4908705B
:100BE0000846007800EB4001C1EBC0104FF6FF71E2
:100BF00001EAC0002849088010BD0146254A127844
:100C00004A434FF0E0235A6100229A611A46126962
:100C100042F001021A6100BF4FF0E022106900F0BB
:100C200001021AB100F48032002AF5D04FF0E02220
:100C3000126922F001024FF0E0231A6100229A614A
:100C400070470146144A12884A434FF0E0235A6124
:100C500000229A611A46126942F001021A6100BF2D
:100C60004FF0E022106900F001021AB100F4803266
:100C7000002AF5D04FF0E022126922F001024FF075
:100C8000E0231A6100229A617047000004000020EE
:100C900000127A00380000203A000020014600BF10
:100CA000704700BF854A128802F04002002AF9D03E
:100CB000C2B2824B1B1D1A80704700BF7F49098852
:100CC00001F040010029F9D0C1B27C4A121D118007
:100CD000704710B586B00446012144F2040000F0CC
:100CE000A6FC0121480400F0AFFC0420ADF814007C
:100CF00003208DF8160018208DF8170005A97048FC
:100D000000F0D8F90820ADF8140004208DF8170081
:100D100005A96B4800F0CEF926208DF800000320CD
:100D20008DF801008DF8020001208DF8030068465F
:100D300000F0F7F801940020ADF80800ADF80A00C3
:100D4000ADF80C00ADF810000C20ADF80E0001A9B4
:100D50005C4800F014FD012240F22551594800F092
:100D6000A6FD0121574800F096FD06B010BD10B554
:100D700086B00446012144F2040000F058FC4FF410
:100D80000070ADF8140003208DF8160018208DF8BF
:100D9000170005A94A4800F08DF94FF48060ADF8BE
:100DA000140004208DF8170005A9454800F082F9C9
:100DB00025208DF8000003208DF801008DF8020039
:100DC00001208DF80300684600F0ABF80194002084
:100DD000ADF80800ADF80A00ADF80C00ADF8100051
:100DE0000C20ADF80E0001A9344800F0C8FC012227
:100DF00040F22551314800F05AFD01212F4800F002
:100E00004AFD06B010BD10B540F225512B4800F048
:100E100033FEA8B12948001D0088C4B22A480088C2
:100E2000C82807DA284801880088401C264A108014
:100E3000264844540120264908700220254908808C
:100E400010BD10B540F225511E4800F015FE10B33C
:100E50001C4800F091FDC4B21B48008800F400401B
:100E6000C8B91948008800F4804060B10A2C03D04A
:100E700000201549088020E01348008840F4004015
:100E80001149088019E00D2C06D10F48008840F464
:100E900080400D49088010E00B480088C0F30D0029
:100EA0000A490C5408480088401C07490880084635
:100EB0000088C72801DD0020088010BD00380140EF
:100EC0000008014000440040400000205C00002079
:100ED000440000204200002009488047094800479C
:100EE000FEE7FEE7FEE7FEE7FEE7FEE7FEE7FEE7DA
:100EF000FEE7FEE704480549054A064B7047000037
:100F0000B104000831010008880100208807002092
:100F1000880300208803002031490143314A1160D1
:100F2000704770B5002100230F22C47804B32D4C04
:100F3000246804F4E064C4F5E064210AC1F1040308
:100F4000CA40447804FA03F184781440214309012B
:100F5000254C0678A155047804F01F050124AC4007
:100F600005786D11AD0005F1E025C5F8004109E0F7
:100F7000047804F01F050124AC401C4D067876115E
:100F800045F8264070BD1A4A0A400243154B1B1F04
:100F90001A60704739B1134A121D12680243114B8F
:100FA0001B1D1A6006E00F4A121D126882430D4B8A
:100FB0001B1D1A607047042808D14FF0E021096911
:100FC00041F004014FF0E022116107E04FF0E02111
:100FD000096921F004014FF0E0221161704700001F
:100FE0000000FA050CED00E000E400E080E100E024
:100FF00080FFFF1F10B50446CC48844208D1012170
:10100000042000F02EFB0021042000F02AFB46E023
:10101000C748844208D10121082000F022FB0021AA
:10102000082000F01EFB3AE0C248844208D10121AA
:10103000102000F016FB0021102000F012FB2EE023
:10104000BD48844208D10121202000F00AFB002184
:10105000202000F006FB22E0B848844208D101219C
:10106000402000F0FEFA0021402000F0FAFA16E0DD
:10107000B348844208D10121802000F0F2FA002117
:10108000802000F0EEFA0AE0AE48844207D1012148
:10109000801500F0E6FA0021A01500F0E2FA10BD7C
:1010A00010B50121084600F0DCFA0021012000F013
:1010B000D8FA10BD2DE9F041024600250026002097
:1010C00000230024002791F803C00CF00F0591F8CD
:1010D00003C00CF0100CBCF1000F03D091F802C05B
:1010E0004CEA050591F800C0BCF1000F31D014683E
:1010F00000202BE04FF0010C0CFA00F3B1F800C017
:101100000CEA03069E4220D183004FF00F0C0CFA2C
:1011100003F7BC4305FA03FC4CEA040491F803C04E
:10112000BCF1280F06D14FF0010C0CFA00FCC2F8FC
:1011300014C00AE091F803C0BCF1480F05D14FF08C
:10114000010C0CFA00FCC2F810C0401C0828D1D3D6
:101150001460B1F800C0BCF1FF0F34DD546800200A
:101160002EE000F1080C4FF0010808FA0CF3B1F87A
:1011700000C00CEA03069E4221D183004FF00F0C01
:101180000CFA03F7BC4305FA03FC4CEA040491F89B
:1011900003C0BCF1280F05D100F1080C08FA0CF8C7
:1011A000C2F8148091F803C0BCF1480F07D100F1D8
:1011B000080C4FF0010808FA0CF8C2F81080401C27
:1011C0000828CED35460BDE8F0814FF6FF7101804E
:1011D000022181700421C17070470246002093688B
:1011E0000B400BB1012000E00020704701468868E9
:1011F00080B2704702460020D3680B400BB101203B
:1012000000E0002070470146C86880B27047016165
:101210007047416170470AB1016100E04161704768
:10122000C16070474FF480320A43826181618261FC
:1012300082698269704702460020434B18684FF666
:101240008073184040EA021008433F4B1860704713
:101250003E49C8617047F0B50A46002300240021CA
:10126000002500F00046B6F1004F02D1364EF1697C
:1012700001E0354E7168C0F3034583B200F44016B7
:10128000B6F5401F08D121F070612F4E766826F028
:1012900070662D4F7E6012E000F48016B6F5801F58
:1012A00006D1032606FA05F4A14341F0706106E079
:1012B000460D360103FA06F6B14341F0706122B1E2
:1012C000460D360103FA06F6314300F00046B6F14A
:1012D000004F02D11C4EF16101E01B4E7160F0BD68
:1012E00030B500228B071C0F0F2303FA04F2164BB4
:1012F00008338C1053F824309343134C08348D106A
:1013000044F8253023468C1053F824308C07240FE2
:1013100000FA04F423430C4C08348D1044F82530B3
:1013200030BD0A49DC310860704700000008014008
:10133000000C014000100140001401400018014061
:10134000001C01400020014000000140000020423C
:10135000E048006840F00100DE4908600846406847
:10136000DD490840DB49486008460068DB49084021
:10137000D84908600846006820F4802008600846C4
:10138000406820F4FE0048604FF41F0088607047FA
:10139000D049096821F48031CE4A116011460968AC
:1013A00021F480211160B0F5803F03D0B0F5802F8B
:1013B0000ED106E0C749096841F48031C54A116081
:1013C00007E0C449096841F4A021C24A116000E065
:1013D00000BF00BF704710B5014600220023002067
:1013E0004A11012A02D1BB4C236806E0022A02D12D
:1013F000B84C236A01E0B74C636A01F01F02012474
:1014000094401C400CB1012000E0002010BD38B514
:10141000002000900024002500BF3120FFF7DBFFF3
:1014200005460098401C00904FF6FF7100988842D6
:1014300001D0002DF1D03120FFF7CDFF08B10124FC
:1014400000E00024204638BD01460020A14A106873
:1014500020F0F80040EAC10010607047A049086021
:101460007047024600209B4B586820F47C1042EAEB
:1014700001031843974B58607047994908667047B5
:1014800001460020934A506820F003000843506052
:1014900070479048406800F00C00704701460020FB
:1014A0008C4A506820F0F0000843506070470146B5
:1014B0000020884A506820F4E0600843506070477C
:1014C00001460020834A506820F4605040EAC10081
:1014D0005060704729B17F4A527A02437D4B5A725D
:1014E00004E07C4A527A82437A4B5A7270477C49B4
:1014F000D8310860704701460020764A506820F4D1
:1015000040400843506070470021724A20321170F9
:10151000704A82F82010012802D004280AD104E081
:1015200001216C4A2032117005E00521694A203200
:10153000117000E000BF00BF70476A490860704743
:101540006449096A0143634A116270476549443935
:101550000860704730B500210022002400235D4D53
:101560006D6805F00C0121B1042905D0082923D1AB
:1015700005E05D4D056022E05B4D05601FE0554DC7
:101580006D6805F47012534D6D6805F480340225C2
:1015900005EB92421CB9554D554305600BE04D4D8E
:1015A0006D6805F400351DB1504D5543056002E0EE
:1015B0004D4D5543056002E04B4D056000BF00BF37
:1015C000444D6D6805F0F0010909494D6B5C0568F3
:1015D000DD4045603F4D6D6805F4E061090A444D0A
:1015E0006B5C4568DD4085603A4D6D6805F460517F
:1015F000C90A3F4D6B5C4568DD40C560354D6D687F
:1016000005F44041890B3B4D6B5CC568B5FBF3F5B8
:10161000056130BD29B12F4A526902432D4B5A61F1
:1016200004E02C4A526982432A4B5A61704729B11F
:10163000284A92690243274B9A6104E0254A92693D
:101640008243244B9A61704729B1224AD2690243EE
:10165000204BDA6104E01F4AD26982431D4BDA61F4
:10166000704729B11B4AD26802431A4BDA6004E082
:10167000184AD2688243174BDA60704729B1154A7D
:1016800012690243134B1A6104E0124A1269824341
:10169000104B1A6170471349403908607047104970
:1016A000C86470470B49C87170470A48406A40F0E7
:1016B000807008494862704701460020054A9268D8
:1016C0000A400AB1012000E00020704701498872F9
:1016D00070470000001002400000FFF8FFFFF6FE18
:1016E000000042428004424200127A0000093D009C
:1016F000450000205500002010B50446FB488442F8
:1017000009D101218803FFF7ACFF00214FF480408D
:10171000FFF7A7FF32E0F648844209D101214804CF
:10172000FFF7ACFF00214FF40030FFF7A7FF25E0E3
:10173000F048844209D101218804FFF79FFF00216E
:101740004FF48020FFF79AFF18E0EB48844209D15C
:101750000121C804FFF792FF00214FF40020FFF79A
:101760008DFF0BE0E548844208D101210805FFF711
:1017700085FF00214FF48010FFF780FF10BD2DE999
:10178000F04786B005460E460024A24600BFA1469B
:101790000027B08900B100BF2F462C8A4CF6FF709D
:1017A0000440F08804432C82AC894EF6F3100440C8
:1017B000B08831890843718908430443AC81AC8AFD
:1017C0004FF6FF400440B0890443AC8201A8FFF704
:1017D000C1FEC648874202D1DDF810A001E0DDF865
:1017E0000CA0A88900F4004040B10AEBCA0000EB4D
:1017F0000A1031684900B0FBF1F807E00AEBCA00B3
:1018000000EB0A1031688900B0FBF1F86420B8FBE6
:10181000F0F004012009642101FB1089A88900F47B
:10182000004040B1322000EBC900B0FBF1F000F005
:101830000700044308E0322000EB09106421B0FBEC
:10184000F1F000F00F0004432C8106B0BDE8F087F2
:101850004FF41651016000218180C18001810C216B
:10186000418100218181704710B502460020108A15
:101870004FF2FF0318400B884C8823438C88234386
:10188000CC8823431843108210BD00210180418081
:101890008180C180704721B1828942F400528281E7
:1018A00004E082894DF6FF731A4082817047F0B5DB
:1018B0000346002400260025002040F66A17B9429E
:1018C00000D100BF1846C1F3421401F01F060127E2
:1018D00007FA06F5012C01D10C3004E0022C01D1ED
:1018E000103000E014301AB107682F43076002E09F
:1018F0000768AF430760F0BD1AB1838A0B43838248
:1019000002E0838A8B4383827047028A4FF6F0732A
:101910001A400282028A0A430282704782894FF289
:10192000FF731A40828182890A438281704721B104
:10193000828942F00202828104E082894FF6FD73BF
:101940001A4082817047028A4FF6DF731A40028282
:10195000028A0A430282704721B1028A42F480421D
:10196000028204E0028A4BF6FF731A40028270473B
:10197000C1F308028280704701468888C0F30800DE
:101980007047818941F0010181817047028BD2B299
:101990000283028B42EA012202837047028B02F427
:1019A0007F420283028B0A430283704721B1828AFD
:1019B00042F02002828204E0828A4FF6DF731A40EE
:1019C0008282704721B1828A42F01002828204E052
:1019D000828A4FF6EF731A408282704721B1828A61
:1019E00042F00802828204E0828A4FF6F7731A40BE
:1019F0008282704721B1828942F40042828103E0F1
:101A00008289C2F30E028281704721B1828A42F438
:101A10000062828204E0828A4FF2FF731A4082825F
:101A20007047828A4FF6FB731A408282828A0A4389
:101A30008282704721B1828A42F00202828204E0EF
:101A4000828A4FF6FD731A40828270470246002058
:101A5000B1F5007F00D100BF13880B400BB101200E
:101A600000E00020704701F40072B2F5007F00D161
:101A700000BFCA430280704770B5024600240023AD
:101A80000025002040F66A16B14200D100BFC1F324
:101A9000421501F01F03012606FA03F3012D02D1BE
:101AA0009689334006E0022D02D1168A334001E0C8
:101AB000968A33400C12012606FA04F41688344044
:101AC00013B10CB1012000E0002070BD10B5002260
:101AD000002340F66A14A14200D100BF0A1201247B
:101AE0009440A3B2DC43048010BD000000380140E4
:101AF0000044004000480040004C004000500040BE
:101B000010B50446FE48844208D10121C014FFF7F5
:101B1000A8FD0021E014FFF7A4FDC4E0B4F1804F5C
:101B200008D101210846FFF7A9FD00210120FFF798
:101B3000A5FDB8E0F348844208D101210220FFF757
:101B40009DFD00210220FFF799FDACE0EE488442A4
:101B500008D101210420FFF791FD00210420FFF7A7
:101B60008DFDA0E0E948844208D101210820FFF75B
:101B700085FD00210820FFF781FD94E0E4488442C0
:101B800008D101211020FFF779FD00211020FFF777
:101B900075FD88E0DF48844208D101212020FFF74D
:101BA0006DFD00212020FFF769FD7CE0DA488442CA
:101BB00008D101214014FFF754FD00216014FFF704
:101BC00050FD70E0D548844209D10121C804FFF7D7
:101BD00048FD00214FF40020FFF743FD63E0D048AB
:101BE000844209D101210805FFF73BFD00214FF494
:101BF0008010FFF736FD56E0CA48844209D1012122
:101C00004805FFF72EFD00214FF40010FFF729FDD6
:101C100049E0C548844208D101214020FFF72EFD4C
:101C200000214020FFF72AFD3DE0C048844208D152
:101C300001218020FFF722FD00218020FFF71EFDFB
:101C400031E0BB48844208D101218015FFF716FD21
:101C50000021A015FFF712FD25E0B648844209D106
:101C600001210804FFF7FDFC00214FF48030FFF74D
:101C7000F8FC18E0B048844209D101214804FFF77C
:101C8000F0FC00214FF40030FFF7EBFC0BE0AB4819
:101C9000844208D101218804FFF7E3FC00214FF4BE
:101CA0008020FFF7DEFC10BD00220288944B984292
:101CB0000ED0994B98420BD0B0F1804F08D0914B89
:101CC000984205D0904B984202D0904B984204D154
:101CD0004FF68F731A404B881A438D4B984207D0AA
:101CE0008C4B984204D04FF6FF431A40CB881A43DE
:101CF00002808B8883850B880385814B98420BD0AB
:101D0000854B984208D08B4B984205D08A4B98421D
:101D100002D08A4B984201D10B7A03860123838239
:101D2000704770B5002400220023058C4FF6FE7624
:101D300035400584028C8388048B4FF68F752C40C8
:101D4000B51E2C400D882C43751E2A400D892A4350
:101D50004D882A436A4DA8420BD06F4DA84208D047
:101D6000744DA84205D0744DA84202D0734DA842CC
:101D700013D14FF6F7752A404D892A434FF6FB756C
:101D80002A408D882A434FF6FF652B404FF6FF55BA
:101D90002B408D892B43CD892B4383800483CD88B1
:101DA0008586028470BD70B5002400220023058C56
:101DB0004FF6EF7635400584028C8388048B48F615
:101DC000FF752C404FF6FF452C400D884FF6FF76EF
:101DD00006EA05252C434FF6DF752A400D8906EAF1
:101DE00005152A434D8806EA05152A43444DA842A5
:101DF00002D0494DA8421DD14FF67F752A404D892A
:101E00004FF6FF7606EA05152A434FF6BF752A40BE
:101E10008D8806EA05152A434FF6FF352B404FF211
:101E2000FF752B408D8906EA85052B43CD8906EA8F
:101E300085052B4383800483CD880587028470BD8C
:101E400070B5002400220023058C4FF6FF66354054
:101E50000584028C8388848B4FF68F752C404FF657
:101E6000FC752C400D882C434FF6FF552A400D89F8
:101E70004FF6FF7606EA05252A434D8806EA052532
:101E80002A431F4DA84202D0234DA8421DD14FF234
:101E9000FF752A404D894FF6FF7606EA05252A434D
:101EA0004FF6FF352A408D8806EA05252A434EF66F
:101EB000FF752B404DF6FF752B408D8906EA051501
:101EC0002B43CD8906EA05152B4383808483CD8877
:101ED0008587028470BD70B5002200230024058C24
:101EE0004EF6FF7635400584038C8488828B48F655
:101EF000FF752A404FF6FF452A400D8820E000007C
:101F0000002C01400004004000080040000C00408C
:101F1000001000400014004000340140004C01401B
:101F2000005001400054014000180040001C0040D7
:101F300000200040004001400044014000480140B2
:101F40004FF6FF7606EA05252A434DF6FF752B402E
:101F50000D8906EA05352B434D8806EA05352B43E6
:101F6000FA4DA84202D0FA4DA84208D14BF6FF75AF
:101F70002C408D894FF6FF7606EA85152C43848028
:101F80008283CD88A0F84050038470BD828B4FF2CD
:101F9000FF331A408283828B4FF6FF7303EA0123DB
:101FA0001A4382837047F0B50C4615460022002183
:101FB0000026078C4EF6FF7C07EA0C070784828B0D
:101FC000018C4FF6FF7707EA043640F6FF473A40A8
:101FD0004FF6FF7707EA05273A434FF6FF7707EA00
:101FE00003373A43D94FB8420ED0D94FB8420BD03D
:101FF000B0F1804F08D0D74FB84205D0D64FB84285
:1020000002D0D64FB84206D14DF6FF77394046F49C
:102010008057394305E047F6FF57394044F480576D
:10202000394382830184F0BD828B4FF6F3731A40EB
:102030008283828B0A4382837047F0B50C46154633
:10204000002200210026078C4FF6FF6C07EA0C07E0
:102050000784828B018C4FF6FF7707EA04264FF640
:102060000C773A404FF6FF7707EA03172F433A43BE
:10207000B64FB8420ED0B64FB8420BD0B0F1804F39
:1020800008D0B44FB84205D0B34FB84202D0B34FD6
:10209000B84206D14FF6FF57394046F480773943AE
:1020A00005E04FF2FF57394044F48077394382838B
:1020B0000184F0BD028B4FF2FF331A400283028B82
:1020C0004FF6FF7303EA01231A4302837047F0B50A
:1020D0000C461546002200210026078C4FF6EF7CA7
:1020E00007EA0C070784028B018C4FF6FF7707EA9B
:1020F000041640F6FF473A404FF6FF7707EA0337EA
:102100003A434FF6FF7707EA05273A438F4FB84225
:102110000ED08F4FB8420BD0B0F1804F08D08D4F0A
:10212000B84205D08C4FB84202D08C4FB84206D18D
:102130004FF6DF77394046F01007394305E04FF698
:102140005F77394044F01007394302830184F0BDC2
:10215000028B4FF6F3731A400283028B0A43028309
:102160007047F0B50C46154600220021068C4FF64C
:10217000FE773E400684028B018C4FF60C7632408F
:102180007E1C06EA03162E433243704EB0420ED038
:102190006F4EB0420BD0B0F1804F08D06D4EB042C0
:1021A00005D06D4EB04202D06C4EB04206D14FF613
:1021B000FD76314044F00106314305E04FF6F576F7
:1021C000314044F00106314302830184F0BD70B513
:1021D00005460C465D4885420ED05D4885420BD0D1
:1021E000B5F1804F08D05B48854205D05A488542FA
:1021F00002D05A48854200D100E000BF208850B983
:102200002389A28861882846FFF7ABFFE18828462A
:10221000FFF79EFF25E0208804280AD12389A288A1
:1022200061882846FFF753FFE1882846FFF742FF01
:1022300017E0208808280AD12389A28861882846C7
:10224000FFF7FBFEE1882846FFF7EEFE09E0238951
:10225000A28861882846FFF7A6FEE1882846FFF796
:1022600095FE70BD2DE9F04105460C46002601277C
:10227000608808B9022600E00026A088012801D164
:10228000022700E001272088A0B92389A28861885D
:102290002846FFF766FFE1882846FFF759FF2389A4
:1022A0003A4631462846FFF712FFE1882846FFF7F5
:1022B00001FF13E02389A28861882846FFF707FF02
:1022C000E1882846FFF7F6FE23893A46314628463C
:1022D000FFF747FFE1882846FFF73AFFBDE8F081A6
:1022E0000A884B881A438B881A43CB881A430B8978
:1022F0001A434B891A438B891A43A0F8442070472C
:102300004FF6FF71818000210180C1804180017200
:1023100070470021018041808180C180018141811D
:102320008181C1817047002101804180012181802C
:102330000021C1800181704700210180418081809E
:10234000C18001814181818170470000002C0140E2
:10235000003401400004004000080040000C004030
:1023600021B1028842F00102028004E002884FF6A7
:10237000FE731A400280704731B1B0F8442042F435
:102380000042A0F8442005E0B0F84420C2F30E0259
:10239000A0F8442070471AB183890B43838102E07F
:1023A00083898B43838170478182704741EA0203AE
:1023B000A0F8483070471AB183890B43838102E04B
:1023C00083898B438381704701894FF6F8721140EE
:1023D000018170470A46002101894FF68F73194029
:1023E00011430181704730B504460D462946204609
:1023F000FFF7F0FF208940F00700208130BD2DE974
:10240000F04104460D4616461F46602D06D13B4658
:10241000012231462046FFF75AFE05E03B460122E5
:1024200031462046FFF79DFE29462046FFF7D2FFA2
:10243000208940F007002081BDE8F08130B50C46CE
:1024400000210189C9B24FF6FF7505EA032515433E
:1024500025432943018130BD2DE9F04105460E4653
:1024600017469846002443463A4631462846FFF729
:10247000E5FF2C894FF6F870044044F007044FF64E
:102480008F70044044F070042C81BDE8F081F0B5F9
:1024900004460D4616461F463B4632462946204610
:1024A000FFF7CCFF208940F480402081F0BD0185FA
:1024B000828270470A46002101884FF68F731940C7
:1024C000114301807047F0B50C4615461E460021A9
:1024D000002200230189028B038C4FF6F8773940E4
:1024E00021434FF6FC473A4040F201173A434FF67A
:1024F000DD773B404FF6FF7707EA06172F433B4354
:10250000018102830384F0BD0A460021018B4FF64E
:102510008F7319401143018370470A460021018BD4
:1025200048F6FF7319404FF6FF7303EA022319437D
:10253000018370470A460021818B4FF68F73194043
:102540001143818370470A460021818B48F6FF734F
:1025500019404FF6FF7303EA022319438183704742
:1025600021B1028842F08002028004E002884FF626
:102570007F731A400280704721B1828842F00402C2
:10258000828004E082884FF6FB731A408280704795
:1025900021B1828842F00802828004E082884FF6EE
:1025A000F7731A408280704721B1828842F001029D
:1025B000828004E082884FF6FE731A408280704762
:1025C0000A460021018B4FF6F7731940114301832E
:1025D00070470A460021018B4FF2FF7319404FF6F6
:1025E000FF7303EA02231943018370470A4600215F
:1025F000818B4FF6F77319401143818370470A4668
:102600000021818B4FF2FF7319404FF6FF7303EAED
:1026100002231943818370470A460021018B4FF63C
:10262000FB7319401143018370470A460021018B57
:102630004FF6FF3319404FF6FF7303EA02231943A5
:10264000018370470A460021818B4FF6FB731940C6
:102650001143818370470A460021818B4FF6FF3377
:1026600019404FF6FF7303EA022319438183704731
:102670000A460021018B4FF67F73194011430183F5
:1026800070470A460021018BC1F30E014FF6FF731C
:1026900003EA02231943018370470A460021818B14
:1026A0004FF67F7319401143818370470A4600211A
:1026B000818BC1F30E014FF6FF7303EA0223194326
:1026C000818370470A460021018C4FF6FD73194043
:1026D0001143018470470A460021018C4FF6F773BD
:1026E00019401143018470470A460021018C4FF6BE
:1026F000DF7319404FF6FF7303EA02131943018495
:1027000070470A460021018C4FF67F7319404FF63F
:10271000FF7303EA02131943018470470A4600213C
:10272000018C4FF6FF5319404FF6FF7303EA022363
:102730001943018470470A460021018C4FF2FF7350
:1027400019404FF6FF7303EA0223194301847047CF
:102750000A460021018C4DF6FF7319404FF6FF73B6
:1027600003EA023319430184704730B50023012482
:102770008C40A3B2048C9C430484048C02FA01F5BF
:10278000ADB22C43048430BD30B5002304248C400A
:10279000A3B2048C9C430484048C02FA01F5ADB20C
:1027A0002C43048430BD70B5034600200024184635
:1027B000183001258D40ACB21D8CA5431D8409B194
:1027C000082909D100EB6100056825F07005056056
:1027D0000568154305600EE00D1FC5F34E0528443E
:1027E000056825F4E045056005684FF6FF7606EAC2
:1027F00002263543056070BD21B1028842F0020215
:10280000028004E002884FF6FD731A400280704790
:1028100021B1028842F00402028004E002884FF6EF
:10282000FB731A400280704721B1828842F0800217
:10283000828004E082884FF67F731A40828070475E
:1028400002884FF6F7731A40028002880A4302801A
:10285000704782884FF68F731A40828082880A43BD
:102860008280704702894FF6F8731A40028102890C
:102870000A430281704702894FF67F731A40028132
:1028800002890A43028170478184704781857047BD
:10289000818670470187704781877047A0F8401094
:1028A000704702884FF6FF431A40028002880A43AD
:1028B000028070470146888E70470146088F704736
:1028C0000146888F70470146B1F8400070470146C5
:1028D000888C70470146088D704702460020138A95
:1028E0000B400BB1012000E000207047CA43028278
:1028F000704730B50246002000230024158A05EAFF
:102900000103958905EA010413B10CB1012000E02F
:10291000002030BDCA4302827047000000204449B5
:102920000860091D0860091D0860091D086041480C
:102930003F4914310860704700213D498279002ADF
:102940003AD00A46126803689A430B461A600A1D79
:10295000126803689A430B1D1A60027911440A68D1
:1029600003681A430A60324A0832126803689A43BD
:102970002F4B08331A601A1D126803689A432C4BB8
:102980000C331A604279102A0ED11A1F126803689C
:102990001A43274B08331A601A1D126803681A433A
:1029A000234B0C331A600DE02149427911440A6827
:1029B00003681A430A6005E0027911440A68036853
:1029C0009A430A6070470021016001710C21417136
:1029D0000021817170471649103109680143144A7A
:1029E00010321160704701460020114A14321268FB
:1029F0000A400AB1012000E0002070470C49143160
:102A000008607047014600200022094B1B6803EA5A
:102A10000102074B14331B680B4013B10AB10120AC
:102A200000E0002070470249143108607047000040
:102A300000040140FFFF0F000E49086070470D4978
:102A4000486070470B49886070474AF6AA200949D8
:102A5000086070474CF6CC40064908607047014654
:102A60000020044AD2680A400AB1012000E0002098
:102A70007047000000300040704700000FB4044968
:102A800010B503AA029800F073F810BC5DF814FBAF
:102A90003C00002010B5431C02E010F8011B71B18E
:102AA0008107FAD14FF0013202C88C1A8C4314EA24
:102AB000C211F9D0C01A0A0603D0C01E10BDC01A38
:102AC00010BD0A0401D0801E10BD0902FCD0401EBA
:102AD00010BD40EA010370B59B072ED14FF00136BF
:102AE000042A2AD308C810C99D1B9D43121F15EA4A
:102AF000C61517D0D8B2E1B2401A50EA056110D11C
:102B000098B2A1B2401A50EA05410AD123F07F40A1
:102B100024F07F41401A50EA052102D1180EA0EBA3
:102B2000146070BDA342DBD018BA21BA884201D923
:102B3000012070BD4FF0FF3070BD0AB9002070BD9C
:102B400010F8013B11F8014B63B1A3420AD1521EA8
:102B500008D010F8013B11F8014B1BB1A34201D181
:102B6000521EEDD1181B70BD7047704770477047FB
:102B7000074B70B50D467B4400F011F8044628461B
:102B800000F020F810B14FF0FF3070BD204670BD4E
:102B900029E1FFFF01694A1C02610878704700B50E
:102BA0008FB0CDE901310021059105497944CDE986
:102BB00003101146684600F02EF80FB000BD00006B
:102BC000E5FFFFFF007B00F080007047754600F0D6
:102BD0003FF8AE4605006946534620F0070085469B
:102BE00018B020B5FEF786F9BDE820404FF000068A
:102BF0004FF000074FF000084FF0000B21F00701E5
:102C0000AC46ACE8C009ACE8C009ACE8C009ACE827
:102C1000C0098D4670472DE9F04106460024D6E9EB
:102C20000170F5688046304603E04146B847641CB1
:102C30003046A8470028F8D12046BDE8F08110B5FD
:102C40000446AFF300802046BDE81040FDF7B7BA58
:102C50000048704724010020782C00080000002064
:102C60005C0000006C010008D42C00085C0000200F
:102C70002C070000880100080000000000A24A04A0
:102C8000000000000000000001020304060708091C
:102C9000010000000000E8034C04B00414057805AE
:102CA000DC054006A40608076C07C6070000010003
:102CB0000000000000000000000000000000000014
:102CC00000010203040102030406070809020406C6
:042CD00008000000F8
:0400000508000131BD
:00000001FF
